:100000000C942A000C943F000C943F000C943F0089
:100010000C943F000C943F000C943F000C943F0064
:100020000C943F000C943F000C943F000C943F0054
:100030000C943F000C943F000C943F000C943F0044
:100040000C943F000C943F000C943F000C943F0034
:100050000C943F0011241FBECFE5D4E0DEBFCDBF1E
:1000600010E0A0E6B0E0ECE4FCE202C005900D92E6
:10007000A638B107D9F70E94CB140C9424160C941F
:100080000000EF92FF920F931F937B018C0120E001
:1000900030E040E05FE40E94410388238CF0C80117
:1000A000B70120E030E040E05FE40E94B9010E9427
:1000B000A1039B01AC01205030404040504806C095
:1000C000C801B7010E94A1039B01AC01B901CA019B
:1000D0001F910F91FF90EF900895A0E0B0E0E3E74B
:1000E000F0E00C94ED15DC012B01FA019C919230AB
:1000F00008F439C1EB018881823008F433C19430AF
:1001000069F4843009F02FC111969C91119789816F
:10011000981709F428C1A0E6B0E025C1843009F49D
:1001200021C18230A9F4923009F01DC19A01AD01BC
:1001300088E0EA010990AE01E90109929E0181502F
:10014000C1F7E201898111969C918923818308C1BD
:10015000923009F407C112962D903C901397EB0151
:100160008A819B811496AD90BD90CD90DC901797BD
:10017000EC80FD800E811F819101281B390BB90194
:1001800037FF04C066277727621B730B6032710547
:100190000CF061C0121613066CF537014801062EEB
:1001A00004C096948794779467940A94D2F721E0D8
:1001B00030E040E050E004C0220F331F441F551FC1
:1001C0006A95D2F721503040404050402E213F21C7
:1001D00040235123211531054105510521F021E02E
:1001E00030E040E050E079018A01E628F72808294C
:1001F00019293CC0232BD1F1260E371E35014601AB
:10020000062E04C096948794779467940A94D2F744
:1002100021E030E040E050E004C0220F331F441FD3
:10022000551F6A95D2F721503040404050402A2156
:100230003B214C215D21211531054105510521F05E
:1002400021E030E040E050E059016A01A628B728DB
:10025000C828D9280BC0821593052CF01C01AA24AC
:10026000BB24650103C0EE24FF24870111969C91F5
:10027000D20111968C91981709F445C0992339F051
:10028000A80197012A193B094C095D0906C0A6017E
:1002900095012E193F09400B510B57FD08C01182E3
:1002A0003382228224833583468357831DC081E0B5
:1002B00081833382228288279927DC01821B930B5A
:1002C000A40BB50B84839583A683B7830DC0220F3F
:1002D000331F441F551F24833583468357838281F0
:1002E000938101979383828324813581468157814D
:1002F000DA01C9010197A109B1098F5F9F4FAF4F83
:10030000BF4328F30BC0918333822282EA0CFB1C8B
:100310000C1D1D1DE482F5820683178383E0808314
:10032000248135814681578157FF1AC0C901AA2708
:1003300097FDA095BA2F81709070A070B0705695FF
:10034000479537952795822B932BA42BB52B848328
:100350009583A683B7838281938101969383828359
:10036000DF0101C0D201CD01CDB7DEB7E2E10C94CF
:100370000916A0E2B0E0EFEBF1E00C94F915698307
:100380007A838B839C832D833E834F835887E9E058
:10039000EE2EF12CEC0EFD1ECE010196B7010E944F
:1003A000CA048E010F5E1F4FCE010596B8010E9450
:1003B000CA048A8991E089278A8BC701B801AE01F6
:1003C000475E5F4F0E946D000E94F503A096E6E035
:1003D0000C941516A0E2B0E0E0EFF1E00C94F915F2
:1003E00069837A838B839C832D833E834F835887D5
:1003F000F9E0EF2EF12CEC0EFD1ECE010196B701B7
:100400000E94CA048E010F5E1F4FCE010596B801EF
:100410000E94CA04C701B801AE01475E5F4F0E9447
:100420006D000E94F503A096E6E00C941516A0E27C
:10043000B0E0EDE1F2E00C94ED1569837A838B83F3
:100440009C832D833E834F835887CE010196BE0146
:10045000675F7F4F0E94CA04CE010596BE016F5EA2
:100460007F4F0E94CA049985923088F08989823032
:10047000C8F0943019F4823051F404C0843029F467
:10048000923081F480E690E0C6C0923049F420E0DA
:100490009A858A89981321E02A87CE010996BBC0E4
:1004A000823049F420E09A858A89981321E02A8BCA
:1004B000CE014196B0C02D843E844F8458886D880B
:1004C0007E888F88988CEE24FF248701AA24BB2481
:1004D000650140E050E060E070E0E0E0F0E0C10184
:1004E00081709070892BE9F0E60CF71C081D191D2E
:1004F0009A01AB012A0D3B1D4C1D5D1D80E090E073
:10050000A0E0B0E0E614F7040805190520F481E046
:1005100090E0A0E0B0E0BA01A901480F591F6A1F9E
:100520007B1FAA0CBB1CCC1CDD1C97FE08C081E005
:1005300090E0A0E0B0E0A82AB92ACA2ADB2A3196C6
:10054000E032F10549F0660C771C881C991C569422
:10055000479437942794C3CFFA85EA892B893C893D
:100560008B859C85280F391F2E5F3F4F17C0CA010E
:1005700081709070892B61F016950795F794E79438
:1005800080E090E0A0E0B0E8E82AF92A0A2B1B2BD3
:1005900076956795579547952F5F3F4F77FDE7CF46
:1005A0000CC0440F551F661F771F17FD4160EE0CEE
:1005B000FF1C001F111F21503040403090E05907B0
:1005C00090E0690790E4790760F32B8F3C8FDB01A3
:1005D000CA018F779070A070B07080349105A1052A
:1005E000B10561F447FD0AC0E114F10401051105EC
:1005F00029F0405C5F4F6F4F7F4F40781A8EFE1797
:1006000011F081E08A8F4D8F5E8F6F8F78A383E02A
:10061000898FCE0149960E94F503A096E2E10C94E1
:100620000916A8E1B0E0E7E1F3E00C94F91569835D
:100630007A838B839C832D833E834F83588789E005
:10064000E82EF12CEC0EFD1ECE010196B7010E94A2
:10065000CA048E010F5E1F4FCE010596B8010E949D
:10066000CA048985823040F08989823028F0C70128
:10067000B8010E94420501C08FEF6896E6E00C9435
:100680001516A8E1B0E0E7E4F3E00C94F9156983EE
:100690007A838B839C832D833E834F83588789E0A5
:1006A000E82EF12CEC0EFD1ECE010196B7010E9442
:1006B000CA048E010F5E1F4FCE010596B8010E943D
:1006C000CA048985823040F08989823028F0C701C8
:1006D000B8010E94420501C08FEF6896E6E00C94D5
:1006E0001516A8E1B0E0E7E7F3E00C94F91569838B
:1006F0007A838B839C832D833E834F83588789E045
:10070000E82EF12CEC0EFD1ECE010196B7010E94E1
:10071000CA048E010F5E1F4FCE010596B8010E94DC
:10072000CA048985823040F08989823028F0C70167
:10073000B8010E94420501C081E06896E6E00C9491
:100740001516ACE0B0E0E7EAF3E00C94FD15698320
:100750007A838B839C83CE010196BE016B5F7F4FB2
:100760000E94CA048D81823061F1823050F1843060
:1007700021F48E81882351F12EC02F81388537FDD9
:1007800020C06E812F3131051CF06623F9F023C0A3
:100790008EE190E0821B930B29853A854B855C8521
:1007A00004C056954795379527958A95D2F76623C5
:1007B000B1F050954095309521953F4F4F4F5F4F89
:1007C0000EC020E030E040E050E009C02FEF3FEFE6
:1007D0004FEF5FE704C020E030E040E050E8B901AF
:1007E000CA012C96E2E00C941916DF92EF92FF9268
:1007F0000F931F93FC01E480F58006811781D1805F
:100800008081823048F480E090E0A0E1B0E0E82A06
:10081000F92A0A2B1B2BA5C0843009F49FC0823013
:1008200021F4EE24FF24870105C0E114F104010541
:10083000110519F4E0E0F0E096C0628173819FEF4A
:10084000623879070CF05BC022E83FEF261B370BBC
:100850002A3131052CF020E030E040E050E02AC0A1
:10086000B801A701022E04C0769567955795479564
:100870000A94D2F781E090E0A0E0B0E004C0880FD5
:10088000991FAA1FBB1F2A95D2F70197A109B10989
:100890008E219F21A023B1230097A105B10521F04E
:1008A00081E090E0A0E0B0E09A01AB01282B392B69
:1008B0004A2B5B2BDA01C9018F779070A070B07062
:1008C00080349105A105B10539F427FF09C0205CEA
:1008D0003F4F4F4F5F4F04C0215C3F4F4F4F5F4F23
:1008E000E0E0F0E02030A0E03A07A0E04A07A0E412
:1008F0005A0710F0E1E0F0E079018A0127C0603882
:10090000710564F5FB01E158FF4FD801C7018F77EE
:100910009070A070B07080349105A105B10539F4D4
:10092000E7FE0DC080E490E0A0E0B0E004C08FE3FB
:1009300090E0A0E0B0E0E80EF91E0A1F1B1F17FFB1
:1009400005C016950795F794E794319687E01695BC
:100950000795F794E7948A95D1F705C0EE24FF2414
:100960008701EFEFF0E06E2F679566276795902F70
:100970009F77D794DD24D7948E2F8695492F462BC9
:10098000582F5D29B701CA011F910F91FF90EF9079
:10099000DF900895FC01DB01408151812281622FAB
:1009A0006F7770E0221F2227221F9381892F880FE3
:1009B000822B282F30E0991F9927991F11969C931D
:1009C000119721153105A9F54115510561057105ED
:1009D00011F482E037C082E89FEF13969C938E93C8
:1009E00012979A01AB0167E0220F331F441F551F76
:1009F0006A95D1F783E08C930DC0220F331F441FFB
:100A0000551F12968D919C911397019713969C9365
:100A10008E931297203080E0380780E0480780E40A
:100A2000580758F314962D933D934D935C93179765
:100A300008952F3F310579F4411551056105710580
:100A400019F484E08C93089564FF03C081E08C93D3
:100A500012C01C9210C02F57304013963C932E9317
:100A6000129783E08C9387E0440F551F661F771F12
:100A70008A95D1F7706414964D935D936D937C9332
:100A8000179708951F93DC01FB019C91923008F4A5
:100A900047C08081823008F443C0943051F41196ED
:100AA0001C91843099F58181682F70E0611B710978
:100AB0003FC0843021F0923031F48230B9F181812D
:100AC000882389F12DC011961C9111978230F1F085
:100AD00081811817D9F412962D913C911397828138
:100AE00093818217930794F028173907BCF0149666
:100AF0008D919D910D90BC91A02D248135814681D1
:100B00005781281739074A075B0718F4112341F06A
:100B10000AC082179307A407B50740F4112319F000
:100B200061E070E005C06FEF7FEF02C060E070E051
:100B3000CB011F910895DF93CF9300D000D00F9287
:100B4000CDB7DEB78A836B8319828A818430A8F59A
:100B50008A81282F30E03D832C838C819D818130D8
:100B60009105D1F02C813D81223031052CF48C810E
:100B70009D81009761F01EC02C813D81223031059E
:100B800081F08C819D818330910581F013C0EAE36F
:100B9000F0E08B8180830EC0E7E3F0E08B818083FF
:100BA00009C0E4E3F0E08B81808304C0E1E3F0E07E
:100BB0008B81808381E0898302C083E0898389817E
:100BC0000F900F900F900F900F90CF91DF9108959D
:100BD000DF93CF9300D000D00F92CDB7DEB78A83DA
:100BE0006B8319828A818430A8F58A81282F30E0AE
:100BF0003D832C838C819D8181309105D1F02C81A6
:100C00003D81223031052CF48C819D81009761F06B
:100C10001EC02C813D812230310581F08C819D8167
:100C20008330910581F013C0EBE3F0E08B8180838A
:100C30000EC0E8E3F0E08B81808309C0E5E3F0E0DB
:100C40008B81808304C0E2E3F0E08B81808381E0CC
:100C5000898302C083E0898389810F900F900F9070
:100C60000F900F90CF91DF910895DF93CF9300D035
:100C700000D0CDB7DEB78A8319828A81843008F02C
:100C800041C08A81282F30E03C832B838B819C815B
:100C900081309105E9F02B813C81223031052CF423
:100CA0008B819C81009761F02AC02B813C8122308E
:100CB0003105B1F08B819C8183309105C9F01FC053
:100CC000ABE3B0E0EBE3F0E0808180958C9317C05C
:100CD000A8E3B0E0E8E3F0E0808180958C930FC05A
:100CE000A5E3B0E0E5E3F0E0808180958C9307C058
:100CF000A2E3B0E0E2E3F0E0808180958C9381E0B4
:100D0000898302C083E0898389810F900F900F90BF
:100D10000F90CF91DF910895DF93CF9300D000D053
:100D200000D0CDB7DEB78A837C836B8319828B8139
:100D30009C81009709F443C08A818430E8F58A8158
:100D4000282F30E03E832D838D819E818130910557
:100D5000E1F02D813E81223031052CF48D819E8180
:100D6000009761F026C02D813E8122303105A1F02F
:100D70008D819E8183309105B1F01BC0E9E3F0E0E5
:100D80008081EB81FC81808314C0E6E3F0E0808108
:100D9000EB81FC8180830DC0E3E3F0E08081EB8197
:100DA000FC81808306C0E0E3F0E08081EB81FC8180
:100DB000808381E0898305C083E0898302C082E06B
:100DC0008983898126960FB6F894DEBF0FBECDBF0A
:100DD000CF91DF910895DF93CF9300D000D000D062
:100DE000CDB7DEB78A836B834C8319828A818430C6
:100DF00008F0DCC08B81883008F0D8C08C8182304C
:100E000008F0D4C08A81282F30E03E832D838D8165
:100E10009E818130910509F443C02D813E812230AD
:100E200031052CF48D819E81009771F0BCC02D811D
:100E30003E812230310509F45FC08D819E8183306F
:100E4000910509F485C0AFC08C818823A9F4AAE379
:100E5000B0E0EAE3F0E08081482F8B81282F30E07A
:100E600081E090E0022E02C0880F991F0A94E2F7F9
:100E7000809584238C9397C0AAE3B0E0EAE3F0E086
:100E80008081482F8B81282F30E081E090E0022E76
:100E900002C0880F991F0A94E2F7842B8C9383C0B9
:100EA0008C818823A9F4A7E3B0E0E7E3F0E0808138
:100EB000482F8B81282F30E081E090E0022E02C085
:100EC000880F991F0A94E2F7809584238C936BC056
:100ED000A7E3B0E0E7E3F0E08081482F8B81282F83
:100EE00030E081E090E0022E02C0880F991F0A9442
:100EF000E2F7842B8C9357C08C818823A9F4A4E358
:100F0000B0E0E4E3F0E08081482F8B81282F30E0CF
:100F100081E090E0022E02C0880F991F0A94E2F748
:100F2000809584238C933FC0A4E3B0E0E4E3F0E039
:100F30008081482F8B81282F30E081E090E0022EC5
:100F400002C0880F991F0A94E2F7842B8C932BC060
:100F50008C818823A9F4A1E3B0E0E1E3F0E0808193
:100F6000482F8B81282F30E081E090E0022E02C0D4
:100F7000880F991F0A94E2F7809584238C9313C0FD
:100F8000A1E3B0E0E1E3F0E08081482F8B81282FDE
:100F900030E081E090E0022E02C0880F991F0A9491
:100FA000E2F7842B8C9381E0898302C083E08983FC
:100FB000898126960FB6F894DEBF0FBECDBFCF91C4
:100FC000DF910895DF93CF9300D000D000D0CDB74C
:100FD000DEB78A836B834C8319828A81843008F060
:100FE000DCC08B81883008F0D8C08C81823008F05A
:100FF000D4C08A81282F30E03E832D838D819E814D
:101000008130910509F443C02D813E8122303105A4
:101010002CF48D819E81009771F0BCC02D813E81A2
:101020002230310509F45FC08D819E8183309105A6
:1010300009F485C0AFC08C818823A9F4ABE3B0E08C
:10104000EBE3F0E08081482F8B81282F30E081E0B6
:1010500090E0022E02C0880F991F0A94E2F7809553
:1010600084238C9397C0ABE3B0E0EBE3F0E08081A6
:10107000482F8B81282F30E081E090E0022E02C0C3
:10108000880F991F0A94E2F7842B8C9383C08C817C
:101090008823A9F4A8E3B0E0E8E3F0E08081482FDA
:1010A0008B81282F30E081E090E0022E02C0880F73
:1010B000991F0A94E2F7809584238C936BC0A8E370
:1010C000B0E0E8E3F0E08081482F8B81282F30E00A
:1010D00081E090E0022E02C0880F991F0A94E2F787
:1010E000842B8C9357C08C818823A9F4A5E3B0E0AE
:1010F000E5E3F0E08081482F8B81282F30E081E00C
:1011000090E0022E02C0880F991F0A94E2F78095A2
:1011100084238C933FC0A5E3B0E0E5E3F0E0808159
:10112000482F8B81282F30E081E090E0022E02C012
:10113000880F991F0A94E2F7842B8C932BC08C8123
:101140008823A9F4A2E3B0E0E2E3F0E08081482F35
:101150008B81282F30E081E090E0022E02C0880FC2
:10116000991F0A94E2F7809584238C9313C0A2E31D
:10117000B0E0E2E3F0E08081482F8B81282F30E05F
:1011800081E090E0022E02C0880F991F0A94E2F7D6
:10119000842B8C9381E0898302C083E089838981D9
:1011A00026960FB6F894DEBF0FBECDBFCF91DF916C
:1011B0000895DF93CF9300D000D00F92CDB7DEB764
:1011C0008A836B8319828A81843008F075C08B8191
:1011D000883008F071C08A81282F30E03D832C834D
:1011E0008C819D818130910549F12C813D81223096
:1011F00031052CF48C819D81009761F05AC02C81BF
:101200003D812230310571F18C819D8183309105C2
:10121000E9F14FC0ABE3B0E0EBE3F0E08081482FB1
:101220008B81282F30E081E090E0022E02C0880FF1
:10123000991F0A94E2F784278C933BC0A8E3B0E09F
:10124000E8E3F0E08081482F8B81282F30E081E0B7
:1012500090E0022E02C0880F991F0A94E2F78427BB
:101260008C9327C0A5E3B0E0E5E3F0E08081482F50
:101270008B81282F30E081E090E0022E02C0880FA1
:10128000991F0A94E2F784278C9313C0A2E3B0E07D
:10129000E2E3F0E08081482F8B81282F30E081E06D
:1012A00090E0022E02C0880F991F0A94E2F784276B
:1012B0008C9381E0898302C083E0898389810F90C8
:1012C0000F900F900F900F90CF91DF910895DF93C3
:1012D000CF93CDB7DEB727970FB6F894DEBF0FBE1A
:1012E000CDBF8A836B835D834C8319828C819D8102
:1012F000009709F47EC08A81843008F077C08B8122
:10130000883008F073C08A81282F30E03F832E8315
:101310004E815F814130510559F18E819F8182302C
:10132000910534F42E813F812115310569F05BC0B0
:101330004E815F814230510579F18E819F818330EA
:10134000910509F43DC04FC0E9E3F0E08081282F0A
:1013500030E08B81882F90E0A90102C05595479518
:101360008A95E2F7CA018170EC81FD8180833BC0E0
:10137000E6E3F0E08081282F30E08B81882F90E039
:10138000A90102C0559547958A95E2F7CA01817077
:10139000EC81FD81808327C0E3E3F0E08081282F8A
:1013A00030E08B81882F90E0A90102C055954795C8
:1013B0008A95E2F7CA018170EC81FD81808313C0B8
:1013C000E0E3F0E08081282F30E08B81882F90E0EF
:1013D000A90102C0559547958A95E2F7CA01817027
:1013E000EC81FD81808381E0898305C083E089836E
:1013F00002C082E08983898127960FB6F894DEBF08
:101400000FBECDBFCF91DF910895DF93CF9300D072
:1014100000D000D0CDB7DEB79C838B831A828B813E
:101420009C81009709F4E4C619821982DDC689817E
:10143000482F50E0CA01880F991F9C01220F331FCB
:10144000220F331F220F331F820F931F9C01240F83
:10145000351F8B819C81FC01E20FF31F6181898123
:10146000482F50E0CA01880F991F9C01220F331F9B
:10147000220F331F220F331F820F931F9C01240F53
:10148000351F8B819C81FC01E20FF31F9281862F17
:10149000692F41E00E94EB068981482F50E0CA0184
:1014A000880F991F9C01220F331F220F331F220F19
:1014B000331F820F931F9C01240F351F8B819C814A
:1014C000FC01E20FF31F63818981482F50E0CA01BC
:1014D000880F991F9C01220F331F220F331F220FE9
:1014E000331F820F931F9C01240F351F8B819C811A
:1014F000FC01E20FF31F9481862F692F41E00E94C7
:10150000EB068981482F50E0CA01880F991F9C0182
:10151000220F331F220F331F220F331F820F931FFF
:101520009C01240F351F8B819C81FC01E20FF31F6E
:1015300065818981482F50E0CA01880F991F9C015D
:10154000220F331F220F331F220F331F820F931FCF
:101550009C01240F351F8B819C81FC01E20FF31F3E
:101560009681862F692F41E00E94EB068981482FE2
:1015700050E0CA01880F991F9C01220F331F220FD0
:10158000331F220F331F820F931F9C01240F351F1F
:101590008B819C81FC01E20FF31F67818981482FB9
:1015A00050E0CA01880F991F9C01220F331F220FA0
:1015B000331F220F331F820F931F9C01240F351FEF
:1015C0008B819C81FC01E20FF31F9085862F692F90
:1015D00041E00E94EB068981482F50E0CA01880F44
:1015E000991F9C01220F331F220F331F220F331F1D
:1015F000820F931F9C01240F351F8B819C81FC015E
:10160000E20FF31F61858981482F50E0CA01880FDE
:10161000991F9C01220F331F220F331F220F331FEC
:10162000820F931F9C01240F351F8B819C81FC012D
:10163000E20FF31F9285862F692F41E00E94EB068F
:101640008981482F50E0CA01880F991F9C01220F01
:10165000331F220F331F220F331F820F931F9C0152
:10166000240F351F8B819C81FC01E20FF31F6385E2
:101670008981482F50E0CA01880F991F9C01220FD1
:10168000331F220F331F220F331F820F931F9C0122
:10169000240F351F8B819C81FC01E20FF31F948581
:1016A000862F692F41E00E94EB068981482F50E088
:1016B000CA01880F991F9C01220F331F220F331F6D
:1016C000220F331F820F931F9C01240F351F8B8124
:1016D0009C81FC01E20FF31F65858981482F50E052
:1016E000CA01880F991F9C01220F331F220F331F3D
:1016F000220F331F820F931F9C01240F351F8B81F4
:101700009C81FC01E20FF31F9685862F692F41E033
:101710000E94EB068981482F50E0CA01880F991F6B
:101720009C01220F331F220F331F220F331F820F02
:10173000931F9C01240F351F8B819C81FC01E20FBC
:10174000F31F8081813009F0AFC28981482F50E0BA
:10175000CA01880F991F9C01220F331F220F331FCC
:10176000220F331F820F931F9C01240F351F8B8183
:101770009C81FC01E20FF31F61818981482F50E0B9
:10178000CA01880F991F9C01220F331F220F331F9C
:10179000220F331F820F931F9C01240F351F8B8153
:1017A0009C81FC01E20FF31F9281862F692F41E09B
:1017B0000E94E2078981482F50E0CA01880F991FD3
:1017C0009C01220F331F220F331F220F331F820F62
:1017D000931F9C01240F351F8B819C81FC01E20F1C
:1017E000F31F63818981482F50E0CA01880F991F38
:1017F0009C01220F331F220F331F220F331F820F32
:10180000931F9C01240F351F8B819C81FC01E20FEB
:10181000F31F9481862F692F41E00E94E20789819E
:10182000482F50E0CA01880F991F9C01220F331FD7
:10183000220F331F220F331F820F931F9C01240F8F
:10184000351F8B819C81FC01E20FF31F658189812B
:10185000482F50E0CA01880F991F9C01220F331FA7
:10186000220F331F220F331F820F931F9C01240F5F
:10187000351F8B819C81FC01E20FF31F9681862F1F
:10188000692F41E00E94E2078981482F50E0CA0198
:10189000880F991F9C01220F331F220F331F220F25
:1018A000331F820F931F9C01240F351F8B819C8156
:1018B000FC01E20FF31F67818981482F50E0CA01C4
:1018C000880F991F9C01220F331F220F331F220FF5
:1018D000331F820F931F9C01240F351F8B819C8126
:1018E000FC01E20FF31F9085862F692F41E00E94D3
:1018F000E2078981482F50E0CA01880F991F9C0197
:10190000220F331F220F331F220F331F820F931F0B
:101910009C01240F351F8B819C81FC01E20FF31F7A
:1019200061858981482F50E0CA01880F991F9C0169
:10193000220F331F220F331F220F331F820F931FDB
:101940009C01240F351F8B819C81FC01E20FF31F4A
:101950009285862F692F41E00E94E2078981482FF6
:1019600050E0CA01880F991F9C01220F331F220FDC
:10197000331F220F331F820F931F9C01240F351F2B
:101980008B819C81FC01E20FF31F63858981482FC5
:1019900050E0CA01880F991F9C01220F331F220FAC
:1019A000331F220F331F820F931F9C01240F351FFB
:1019B0008B819C81FC01E20FF31F9485862F692F98
:1019C00041E00E94E2078981482F50E0CA01880F58
:1019D000991F9C01220F331F220F331F220F331F29
:1019E000820F931F9C01240F351F8B819C81FC016A
:1019F000E20FF31F65858981482F50E0CA01880FE7
:101A0000991F9C01220F331F220F331F220F331FF8
:101A1000820F931F9C01240F351F8B819C81FC0139
:101A2000E20FF31F9685862F692F41E00E94E2079F
:101A30008981482F50E0CA01880F991F9C01220F0D
:101A4000331F220F331F220F331F820F931F9C015E
:101A5000240F351F8B819C81FC01E20FF31F8785CA
:101A6000843008F0BEC38981482F50E0CA01880F36
:101A7000991F9C01220F331F220F331F220F331F88
:101A8000820F931F9C01240F351F8B819C81FC01C9
:101A9000E20FF31F8089883008F0D6C08981482F73
:101AA00050E0CA01880F991F9C01220F331F220F9B
:101AB000331F220F331F820F931F9C01240F351FEA
:101AC0008B819C81FC01E20FF31F67858981482F80
:101AD00050E0CA01880F991F9C01220F331F220F6B
:101AE000331F220F331F820F931F9C01240F351FBA
:101AF0008B819C81FC01E20FF31F9089862F692F57
:101B000041E00E94EB068981482F50E0CA01880F0E
:101B1000991F9C01220F331F220F331F220F331FE7
:101B2000820F931F9C01240F351F8B819C81FC0128
:101B3000E20FF31F80818130B1F58981482F50E099
:101B4000CA01880F991F9C01220F331F220F331FD8
:101B5000220F331F820F931F9C01240F351F8B818F
:101B60009C81FC01E20FF31F67858981482F50E0BB
:101B7000CA01880F991F9C01220F331F220F331FA8
:101B8000220F331F820F931F9C01240F351F8B815F
:101B90009C81FC01E20FF31F9089862F692F41E0A1
:101BA0000E94E2071EC38981482F50E0CA01880FB6
:101BB000991F9C01220F331F220F331F220F331F47
:101BC000820F931F9C01240F351F8B819C81FC0188
:101BD000E20FF31F8081882309F003C38981482F16
:101BE00050E0CA01880F991F9C01220F331F220F5A
:101BF000331F220F331F820F931F9C01240F351FA9
:101C00008B819C81FC01E20FF31F67858981482F3E
:101C100050E0CA01880F991F9C01220F331F220F29
:101C2000331F220F331F820F931F9C01240F351F78
:101C30008B819C81FC01E20FF31F9089862F692F15
:101C400040E00E94E207CDC28981482F50E0CA01DE
:101C5000880F991F9C01220F331F220F331F220F61
:101C6000331F820F931F9C01240F351F8B819C8192
:101C7000FC01E20FF31F8785813009F4B2C289812C
:101C8000882F90E09C01220F331F3E832D838D818E
:101C90009E81880F991F880F991F880F991F2D818A
:101CA0003E81280F391F9DC28981482F50E0CA010B
:101CB000880F991F9C01220F331F220F331F220F01
:101CC000331F820F931F9C01240F351F8B819C8132
:101CD000FC01E20FF31F8081882309F080C2898113
:101CE000482F50E0CA01880F991F9C01220F331F13
:101CF000220F331F220F331F820F931F9C01240FCB
:101D0000351F8B819C81FC01E20FF31F618189816A
:101D1000482F50E0CA01880F991F9C01220F331FE2
:101D2000220F331F220F331F820F931F9C01240F9A
:101D3000351F8B819C81FC01E20FF31F9281862F5E
:101D4000692F40E00E94E2078981482F50E0CA01D4
:101D5000880F991F9C01220F331F220F331F220F60
:101D6000331F820F931F9C01240F351F8B819C8191
:101D7000FC01E20FF31F63818981482F50E0CA0103
:101D8000880F991F9C01220F331F220F331F220F30
:101D9000331F820F931F9C01240F351F8B819C8161
:101DA000FC01E20FF31F9481862F692F40E00E940F
:101DB000E2078981482F50E0CA01880F991F9C01D2
:101DC000220F331F220F331F220F331F820F931F47
:101DD0009C01240F351F8B819C81FC01E20FF31FB6
:101DE00065818981482F50E0CA01880F991F9C01A5
:101DF000220F331F220F331F220F331F820F931F17
:101E00009C01240F351F8B819C81FC01E20FF31F85
:101E10009681862F692F40E00E94E2078981482F32
:101E200050E0CA01880F991F9C01220F331F220F17
:101E3000331F220F331F820F931F9C01240F351F66
:101E40008B819C81FC01E20FF31F67818981482F00
:101E500050E0CA01880F991F9C01220F331F220FE7
:101E6000331F220F331F820F931F9C01240F351F36
:101E70008B819C81FC01E20FF31F9085862F692FD7
:101E800040E00E94E2078981482F50E0CA01880F94
:101E9000991F9C01220F331F220F331F220F331F64
:101EA000820F931F9C01240F351F8B819C81FC01A5
:101EB000E20FF31F61858981482F50E0CA01880F26
:101EC000991F9C01220F331F220F331F220F331F34
:101ED000820F931F9C01240F351F8B819C81FC0175
:101EE000E20FF31F9285862F692F40E00E94E207E0
:101EF0008981482F50E0CA01880F991F9C01220F49
:101F0000331F220F331F220F331F820F931F9C0199
:101F1000240F351F8B819C81FC01E20FF31F638529
:101F20008981482F50E0CA01880F991F9C01220F18
:101F3000331F220F331F220F331F820F931F9C0169
:101F4000240F351F8B819C81FC01E20FF31F9485C8
:101F5000862F692F40E00E94E2078981482F50E0D8
:101F6000CA01880F991F9C01220F331F220F331FB4
:101F7000220F331F820F931F9C01240F351F8B816B
:101F80009C81FC01E20FF31F65858981482F50E099
:101F9000CA01880F991F9C01220F331F220F331F84
:101FA000220F331F820F931F9C01240F351F8B813B
:101FB0009C81FC01E20FF31F9685862F692F40E07C
:101FC0000E94E2078981482F50E0CA01880F991FBB
:101FD0009C01220F331F220F331F220F331F820F4A
:101FE000931F9C01240F351F8B819C81FC01E20F04
:101FF000F31F8785843008F0EFC08981482F50E0B7
:10200000CA01880F991F9C01220F331F220F331F13
:10201000220F331F820F931F9C01240F351F8B81CA
:102020009C81FC01E20FF31F8089883008F0D4C046
:102030008981482F50E0CA01880F991F9C01220F07
:10204000331F220F331F220F331F820F931F9C0158
:10205000240F351F8B819C81FC01E20FF31F6785E4
:102060008981482F50E0CA01880F991F9C01220FD7
:10207000331F220F331F220F331F820F931F9C0128
:10208000240F351F8B819C81FC01E20FF31F908987
:10209000862F692F41E00E94EB068981482F50E08E
:1020A000CA01880F991F9C01220F331F220F331F73
:1020B000220F331F820F931F9C01240F351F8B812A
:1020C0009C81FC01E20FF31F80818130B1F5898191
:1020D000482F50E0CA01880F991F9C01220F331F1F
:1020E000220F331F220F331F820F931F9C01240FD7
:1020F000351F8B819C81FC01E20FF31F678589816D
:10210000482F50E0CA01880F991F9C01220F331FEE
:10211000220F331F220F331F820F931F9C01240FA6
:10212000351F8B819C81FC01E20FF31F9089862F64
:10213000692F41E00E94E2074FC08981482F50E09B
:10214000CA01880F991F9C01220F331F220F331FD2
:10215000220F331F820F931F9C01240F351F8B8189
:102160009C81FC01E20FF31F80818823A9F58981FE
:10217000482F50E0CA01880F991F9C01220F331F7E
:10218000220F331F220F331F820F931F9C01240F36
:10219000351F8B819C81FC01E20FF31F67858981CC
:1021A000482F50E0CA01880F991F9C01220F331F4E
:1021B000220F331F220F331F820F931F9C01240F06
:1021C000351F8B819C81FC01E20FF31F9089862FC4
:1021D000692F40E00E94E20781E08A8302C082E02A
:1021E0008A8389818F5F89838981882309F41FC944
:1021F0008A8126960FB6F894DEBF0FBECDBFCF9171
:10220000DF910895DF93CF93CDB7DEB769970FB60F
:10221000F894DEBF0FBECDBF9B838A836C83198287
:102220008A819B81009709F467C18C81882F90E097
:10223000FC01E558FF4F80818C83E1E3F0E08C8165
:102240008083EA81FB818081813009F0B1C0EA811D
:10225000FB818181898FEA81FB818281888F8C81DA
:10226000882F90E0817090701F8A009711F481E0B0
:102270008F8B898D688D4F890E94E207EA81FB81EF
:1022800083818E8BEA81FB8184818D8B8C81869505
:10229000882F90E0817090701C8A009711F481E083
:1022A0008C8B8E896D894C890E94E207EA81FB81C3
:1022B00085818B8BEA81FB8186818A8B8C818695D7
:1022C0008695882F90E081709070198A009711F49C
:1022D00081E0898B8B896A8949890E94E207EA81BA
:1022E000FB818781888BEA81FB8180858F878C8148
:1022F000869586958695882F90E0817090701E86D1
:10230000009711F481E08E8788896F854E850E9441
:10231000E207EA81FB8181858D87EA81FB818285E5
:102320008C878C8182958F70882F90E0817090705F
:102330001B86009711F481E08B878D856C854B851A
:102340000E94E207EA81FB8183858A87EA81FB811B
:10235000848589878C81829586958770882F90E007
:10236000817090701886009711F481E088878A85C3
:10237000698548850E94E207EA81FB8185858F8314
:10238000EA81FB8186858E838C81829586958695F0
:102390008370882F90E0817090701D82009711F4F7
:1023A00081E08D838F816E814D810E94E207A1C003
:1023B000EA81FB818081882309F09BC0EA81FB814F
:1023C0002181EA81FB8132818C81882F90E0FC01A0
:1023D000E558FF4F8081982F9170822F632F492FEE
:1023E0000E94E207EA81FB812381EA81FB8134813B
:1023F0008C81882F90E0FC01E558FF4F8081869505
:10240000982F9170822F632F492F0E94E207EA8153
:10241000FB812581EA81FB8136818C81882F90E0C8
:10242000FC01E558FF4F808186958695982F917025
:10243000822F632F492F0E94E207EA81FB812781C7
:10244000EA81FB8130858C81882F90E0FC01E55882
:10245000FF4F8081869586958695982F9170822F63
:10246000632F492F0E94E207EA81FB812185EA81DF
:10247000FB8132858C81882F90E0FC01E558FF4F6D
:10248000808182958F70982F9170822F632F492FB2
:102490000E94E207EA81FB812385EA81FB81348582
:1024A0008C81882F90E0FC01E558FF4F8081829558
:1024B00086958770982F9170822F632F492F0E94E5
:1024C000E207EA81FB812585EA81FB8136858C81E3
:1024D000882F90E0FC01E558FF4F8081829586951A
:1024E00086958370982F9170822F632F492F0E94B9
:1024F000E20781E0898302C082E08983898169964D
:102500000FB6F894DEBF0FBECDBFCF91DF91089517
:10251000DF93CF9300D000D00F92CDB7DEB79B836F
:102520008A8319828A819B81009709F43EC0EA81DF
:10253000FB8180818130C9F4EA81FB818785843009
:1025400088F5EA81FB818089883058F4EA81FB8133
:102550008785EA81FB819089692F40E00E94E2072C
:1025600021C0EA81FB8187851DC0EA81FB818081D2
:102570008823C1F4EA81FB818785843098F4EA815D
:10258000FB818089883058F4EA81FB818785EA8164
:10259000FB819089692F41E00E94E20703C0EA8134
:1025A000FB81878581E0898302C082E089838981FC
:1025B0000F900F900F900F900F90CF91DF91089593
:1025C000DF93CF9300D000D00F92CDB7DEB79B83BF
:1025D0008A8319828A819B81009709F43EC0EA812F
:1025E000FB8180818130C9F4EA81FB818785843059
:1025F00088F5EA81FB818089883058F4EA81FB8183
:102600008785EA81FB819089692F41E00E94E2077A
:1026100021C0EA81FB8187851DC0EA81FB81808121
:102620008823C1F4EA81FB818785843098F4EA81AC
:10263000FB818089883058F4EA81FB818785EA81B3
:10264000FB819089692F40E00E94E20703C0EA8184
:10265000FB81878581E0898302C082E0898389814B
:102660000F900F900F900F900F90CF91DF910895E2
:10267000DF93CF9300D000D0CDB7DEB79B838A83A2
:1026800019828A819B81009771F1EA81FB8181899E
:10269000843058F5EA81FB818289883000F5EA812F
:1026A000FB818081813059F4EA81FB818189EA8153
:1026B000FB819289692F40E00E94E20716C0EA81FF
:1026C000FB818081882389F4EA81FB818189EA8109
:1026D000FB819289692F41E00E94E20706C0EA81EE
:1026E000FB81818902C082E0898389810F900F90EC
:1026F0000F900F90CF91DF910895DF93CF9300D08B
:1027000000D0CDB7DEB79B838A8319828A819B81F3
:10271000009771F1EA81FB818189843058F5EA8163
:10272000FB818289883000F5EA81FB8180818130DC
:1027300059F4EA81FB818189EA81FB819289692FC1
:1027400041E00E94E20716C0EA81FB818081882374
:1027500089F4EA81FB818189EA81FB819289692F71
:1027600040E00E94E20706C0EA81FB81818902C045
:1027700082E0898389810F900F900F900F90CF9105
:10278000DF910895DF93CF9300D000D0CDB7DEB7AF
:102790009C838B831A828B819C81009709F4F1C002
:1027A0001982EB81FC818081813009F072C0EB815C
:1027B000FC812181EB81FC8132818981982F91708C
:1027C000822F632F492F0E94E207EB81FC81338126
:1027D000EB81FC81248189818695982F9170832FCC
:1027E000622F492F0E94E207EB81FC813581EB814A
:1027F000FC812681898186958695982F9170832FFB
:10280000622F492F0E94E207EB81FC813781EB8127
:10281000FC8120858981869586958695982F917073
:10282000832F622F492F0E94E207EB81FC813185C3
:10283000EB81FC812285898182958F70982F917020
:10284000832F622F492F0E94E207EB81FC813385A1
:10285000EB81FC8124858981829586958770982FEC
:102860009170832F622F492F0E94E207EB81FC8138
:102870003585EB81FC8126858981829586958695B3
:102880008370982F9170832F622F492F0E94E20747
:102890007AC0EB81FC818081882309F074C0EB81D0
:1028A000FC812181EB81FC8132818981982F91709B
:1028B000822F632F492F0E94E207EB81FC81338135
:1028C000EB81FC81248189818695982F9170832FDB
:1028D000622F492F0E94E207EB81FC813581EB8159
:1028E000FC812681898186958695982F9170832F0A
:1028F000622F492F0E94E207EB81FC813781EB8137
:10290000FC8120858981869586958695982F917082
:10291000832F622F492F0E94E207EB81FC813185D2
:10292000EB81FC812285898182958F70982F91702F
:10293000832F622F492F0E94E207EB81FC813385B0
:10294000EB81FC8124858981829586958770982FFB
:102950009170832F622F492F0E94E207EB81FC8147
:102960003585EB81FC8126858981829586958695C2
:102970008370982F9170832F622F492F0E94E20756
:1029800002C082E08A838A810F900F900F900F908F
:10299000CF91DF910895DF93CF93CDB7DEB7A097A6
:1029A0000FB6F894DEBF0FBECDBF88E690E00E9460
:1029B000050A18A21F8E0AC180E090E0AAE7B4E4DD
:1029C000898F9A8FAB8FBC8F698D7A8D8B8D9C8D03
:1029D00020E030E04AE753E40E941702DC01CB011B
:1029E0008D8B9E8BAF8BB88F6D897E898F89988DEB
:1029F00020E030E040E85FE30E94710388232CF47C
:102A000081E090E09C8B8B8B3FC06D897E898F89A4
:102A1000988D20E03FEF4FE757E40E94110318160E
:102A20004CF5698D7A8D8B8D9C8D20E030E040E2F5
:102A300051E40E941702DC01CB01BC01CD010E94D0
:102A40004100DC01CB019C8B8B8B0FC089E190E0B6
:102A50009A8B898B89899A890197F1F79A8B898B4F
:102A60008B899C8901979C8B8B8B8B899C89009788
:102A700069F714C06D897E898F89988D0E94410005
:102A8000DC01CB019C8B8B8B8B899C89988B8F87EE
:102A90008F8598890197F1F7988B8F872F8D88E61E
:102AA00090E0622F0E9402118F8D98A189309105CC
:102AB00009F087C089E090E09E8F8D8F7DC080E017
:102AC00090E0AAE7B4E48B879C87AD87BE876B85CF
:102AD0007C858D859E8520E030E04AE753E40E94A6
:102AE0001702DC01CB018F839887A987BA876F8192
:102AF000788589859A8520E030E040E85FE30E9490
:102B0000710388232CF481E090E09E838D833FC085
:102B10006F81788589859A8520E03FEF4FE757E4FC
:102B20000E94110318164CF56B857C858D859E855A
:102B300020E030E040E251E40E941702DC01CB01CA
:102B4000BC01CD010E944100DC01CB019E838D833D
:102B50000FC089E190E09C838B838B819C810197DE
:102B6000F1F79C838B838D819E8101979E838D835A
:102B70008D819E81009769F714C06F817885898562
:102B80009A850E944100DC01CB019E838D838D815B
:102B90009E819A83898389819A810197F1F79A832B
:102BA00089832D8D88E690E0622F0E9402118D8D21
:102BB0009E8D01979E8F8D8F8D8D9E8D99230CF00C
:102BC0007ECF8F8D98A1019698A38F8F8F8D98A11E
:102BD0008A3091050CF4F0CEECCE2F923F924F92BA
:102BE0005F926F927F928F929F92AF92BF92CF929D
:102BF000DF92EF92FF920F931F93CF93DF93CDB7A6
:102C0000DEB7CA1BDB0B0FB6F894DEBF0FBECDBF1D
:102C100009942A88398848885F846E847D848C84EE
:102C20009B84AA84B984C884DF80EE80FD800C81F7
:102C30001B81AA81B981CE0FD11D0FB6F894DEBFDA
:0C2C40000FBECDBFED010895F894FFCF4A
:102C4C000000000000000000010000000100020074
:102C5C0003000400050006000701003F065B4F66F9
:062C6C006D7D077F6F0083
:00000001FF
