:100000000C942A000C9447000C9447000C94470071
:100010000C9447000C9447000C9447000C94470044
:100020000C9447000C9447000C9447000C94470034
:100030000C9447000C9447000C9447000C94470024
:100040000C9447000C9447000C9447000C94470014
:100050000C94470011241FBECFE5D8E0DEBFCDBF12
:1000600011E0A0E6B0E0ECE3F2E402C005900D92EE
:10007000A63AB107D9F711E0A6EAB1E001C01D9296
:10008000A13BB107E1F70E942D200C941C210C9498
:100090000000EF92FF920F931F937B018C0120E0F1
:1000A00030E040E05FE40E94F50388238CF0C80153
:1000B000B70120E030E040E05FE40E94C1010E940F
:1000C000B3049B01AC01205030404040504806C072
:1000D000C801B7010E94B3049B01AC01B901CA0178
:1000E0001F910F91FF90EF900895A0E0B0E0EBE733
:1000F000F0E00C94A020DC012B01FA019C919230DD
:1001000008F439C1EB018881823008F433C194309E
:1001100069F4843009F02FC111969C91119789815F
:10012000981709F428C1A0E6B0E025C1843009F48D
:1001300021C18230A9F4923009F01DC19A01AD01AC
:1001400088E0EA010990AE01E90109929E0181501F
:10015000C1F7E201898111969C918923818308C1AD
:10016000923009F407C112962D903C901397EB0141
:100170008A819B811496AD90BD90CD90DC901797AD
:10018000EC80FD800E811F819101281B390BB90184
:1001900037FF04C066277727621B730B6032710537
:1001A0000CF061C0121613066CF537014801062EDB
:1001B00004C096948794779467940A94D2F721E0C8
:1001C00030E040E050E004C0220F331F441F551FB1
:1001D0006A95D2F721503040404050402E213F21B7
:1001E00040235123211531054105510521F021E01E
:1001F00030E040E050E079018A01E628F72808293C
:1002000019293CC0232BD1F1260E371E350146019A
:10021000062E04C096948794779467940A94D2F734
:1002200021E030E040E050E004C0220F331F441FC3
:10023000551F6A95D2F721503040404050402A2146
:100240003B214C215D21211531054105510521F04E
:1002500021E030E040E050E059016A01A628B728CB
:10026000C828D9280BC0821593052CF01C01AA249C
:10027000BB24650103C0EE24FF24870111969C91E5
:10028000D20111968C91981709F445C0992339F041
:10029000A80197012A193B094C095D0906C0A6016E
:1002A00095012E193F09400B510B57FD08C01182D3
:1002B0003382228224833583468357831DC081E0A5
:1002C00081833382228288279927DC01821B930B4A
:1002D000A40BB50B84839583A683B7830DC0220F2F
:1002E000331F441F551F24833583468357838281E0
:1002F000938101979383828324813581468157813D
:10030000DA01C9010197A109B1098F5F9F4FAF4F72
:10031000BF4328F30BC0918333822282EA0CFB1C7B
:100320000C1D1D1DE482F5820683178383E0808304
:10033000248135814681578157FF1AC0C901AA27F8
:1003400097FDA095BA2F81709070A070B0705695EF
:10035000479537952795822B932BA42BB52B848318
:100360009583A683B7838281938101969383828349
:10037000DF0101C0D201CD01CDB7DEB7E2E10C94BF
:10038000BC20A0E2B0E0E7ECF1E00C94AC20698383
:100390007A838B839C832D833E834F835887E9E048
:1003A000EE2EF12CEC0EFD1ECE010196B7010E943F
:1003B000A4068E010F5E1F4FCE010596B8010E9464
:1003C000A4068A8991E089278A8BC701B801AE010A
:1003D000475E5F4F0E9475000E94CF05A096E6E041
:1003E0000C94C820A0E2B0E0E8EFF1E00C94AC205F
:1003F00069837A838B839C832D833E834F835887C5
:10040000F9E0EF2EF12CEC0EFD1ECE010196B701A6
:100410000E94A4068E010F5E1F4FCE010596B80103
:100420000E94A406C701B801AE01475E5F4F0E945B
:1004300075000E94CF05A096E6E00C94C820A0E2CB
:10044000B0E0E5E2F2E00C94A02069837A838B832C
:100450009C832D833E834F835887CE010196BE0136
:10046000675F7F4F0E94A406CE010596BE016F5EB6
:100470007F4F0E94A4069985923088F08989823046
:10048000C8F0943019F4823051F404C0843029F457
:10049000923081F480E690E0C6C0923049F420E0CA
:1004A0009A858A89981321E02A87CE010996BBC0D4
:1004B000823049F420E09A858A89981321E02A8BBA
:1004C000CE014196B0C02D843E844F8458886D88FB
:1004D0007E888F88988CEE24FF248701AA24BB2471
:1004E000650140E050E060E070E0E0E0F0E0C10174
:1004F00081709070892BE9F0E60CF71C081D191D1E
:100500009A01AB012A0D3B1D4C1D5D1D80E090E062
:10051000A0E0B0E0E614F7040805190520F481E036
:1005200090E0A0E0B0E0BA01A901480F591F6A1F8E
:100530007B1FAA0CBB1CCC1CDD1C97FE08C081E0F5
:1005400090E0A0E0B0E0A82AB92ACA2ADB2A3196B6
:10055000E032F10549F0660C771C881C991C569412
:10056000479437942794C3CFFA85EA892B893C892D
:100570008B859C85280F391F2E5F3F4F17C0CA01FE
:1005800081709070892B61F016950795F794E79428
:1005900080E090E0A0E0B0E8E82AF92A0A2B1B2BC3
:1005A00076956795579547952F5F3F4F77FDE7CF36
:1005B0000CC0440F551F661F771F17FD4160EE0CDE
:1005C000FF1C001F111F21503040403090E05907A0
:1005D00090E0690790E4790760F32B8F3C8FDB0193
:1005E000CA018F779070A070B07080349105A1051A
:1005F000B10561F447FD0AC0E114F10401051105DC
:1006000029F0405C5F4F6F4F7F4F40781A8EFE1786
:1006100011F081E08A8F4D8F5E8F6F8F78A383E01A
:10062000898FCE0149960E94CF05A096E2E10C94F5
:10063000BC20A8E1B0E0EFE1F3E00C94A8206983CE
:100640007A838B839C832D833E834F835887B9E0C5
:10065000EB2EF12CEC0EFD1ECE010196B7010E948F
:10066000A4068E010F5E1F4FCE010596B8010E94B1
:10067000A4062985223008F47EC03989323010F46E
:10068000B8017CC08A859A8989278A87243011F02D
:10069000223031F4231709F06EC060E670E06EC0BE
:1006A000343039F41D861E861F86188A1C861B86E8
:1006B00004C0323021F484E08987B7015FC02B8504
:1006C0003C858B899C89281B390B3C872B87ED84C3
:1006D000FE840F851889AD88BE88CF88D88CEA142F
:1006E000FB040C051D0540F4EE0CFF1C001F111F40
:1006F000215030403C872B8720E030E040E050E044
:1007000080E090E0A0E0B0E460E070E0EA14FB0478
:100710000C051D0540F0282B392B4A2B5B2BEA18C2
:10072000FB080C091D09B695A79597958795EE0CC2
:10073000FF1C001F111F6F5F7F4F6F31710531F775
:10074000DA01C9018F779070A070B0708034910584
:10075000A105B10561F427FD0AC0E114F10401050A
:10076000110529F0205C3F4F4F4F5F4F20782D87B8
:100770003E874F87588BBE01675F7F4FCB010E943A
:10078000CF056896EAE00C94C420A8E1B0E0EBEC59
:10079000F3E00C94AC2069837A838B839C832D8354
:1007A0003E834F83588789E0E82EF12CEC0EFD1E26
:1007B000CE010196B7010E94A4068E010F5E1F4F65
:1007C000CE010596B8010E94A4068985823040F0CA
:1007D0008989823028F0C701B8010E941C0701C036
:1007E0008FEF6896E6E00C94C820A8E1B0E0EBEF4C
:1007F000F3E00C94AC2069837A838B839C832D83F4
:100800003E834F83588789E0E82EF12CEC0EFD1EC5
:10081000CE010196B7010E94A4068E010F5E1F4F04
:10082000CE010596B8010E94A4068985823040F069
:100830008989823028F0C701B8010E941C0701C0D5
:100840008FEF6896E6E00C94C820A8E1B0E0EBE2F8
:10085000F4E00C94AC2069837A838B839C832D8392
:100860003E834F83588789E0E82EF12CEC0EFD1E65
:10087000CE010196B7010E94A4068E010F5E1F4FA4
:10088000CE010596B8010E94A4068985823040F009
:100890008989823028F0C701B8010E941C0701C075
:1008A00081E06896E6E00C94C820A8E0B0E0EBE5B3
:1008B000F4E00C94A9209B01AC0183E08983DA0168
:1008C000C9018827B7FD83959927AA27BB27B82E8A
:1008D000211531054105510519F482E089833AC09B
:1008E0008823A9F0203080E0380780E0480780E8BE
:1008F000580729F460E070E080E09FEC30C0EE24FF
:10090000FF248701E21AF30A040B150B02C07901D8
:100910008A018EE1C82ED12CDC82CB82ED82FE8250
:100920000F831887C801B7010E9480050197181628
:10093000190684F4082E04C0EE0CFF1C001F111FC2
:100940000A94D2F7ED82FE820F831887C81AD90A5B
:10095000DC82CB82BA82CE0101960E94CF05289616
:10096000E9E00C94C520ACE0B0E0E9EBF4E00C94D5
:10097000B02069837A838B839C83CE010196BE016C
:100980006B5F7F4F0E94A4068D81823061F18230BF
:1009900050F1843021F48E81882351F12EC02F81B3
:1009A000388537FD20C06E812F3131051CF066235C
:1009B000F9F023C08EE190E0821B930B29853A85E4
:1009C0004B855C8504C056954795379527958A9544
:1009D000D2F76623B1F050954095309521953F4F61
:1009E0004F4F5F4F0EC020E030E040E050E009C0C4
:1009F0002FEF3FEF4FEF5FE704C020E030E040E033
:100A000050E8B901CA012C96E2E00C94CC20A8E091
:100A1000B0E0EDE0F5E00C94A8207B018C016115BD
:100A200071058105910519F482E0898360C083E036
:100A300089838EE1C82ED12CDC82CB82ED82FE82AE
:100A40000F831887C801B7010E948005FC01319708
:100A5000F7FF3BC0222733272E1B3F0B57016801AE
:100A6000022E04C0D694C794B794A7940A94D2F7E0
:100A700040E050E060E070E081E090E0A0E0B0E0B5
:100A800004C0880F991FAA1FBB1F2A95D2F7019790
:100A9000A109B1098E219F21A023B1230097A105AF
:100AA000B10521F041E050E060E070E04A295B29A7
:100AB0006C297D294D835E836F8378878EE190E07A
:100AC0008E1B9F0B9C838B8312C0309781F00E2E60
:100AD00004C0EE0CFF1C001F111F0A94D2F7ED8218
:100AE000FE820F831887CE1ADF0ADC82CB821A823D
:100AF000CE0101960E94CF052896EAE00C94C4200E
:100B0000EF92FF920F931F937B018C0180E0E81618
:100B100080E0F80681E0080780E0180788F48FEF8E
:100B2000E816F1040105110531F028F088E090E0A5
:100B3000A0E0B0E017C080E090E0A0E0B0E012C01C
:100B400080E0E81680E0F80680E0080781E01807FA
:100B500028F088E190E0A0E0B0E004C080E190E0FF
:100B6000A0E0B0E020E230E040E050E0281B390B8C
:100B70004A0B5B0B04C016950795F794E7948A958A
:100B8000D2F7F701E859FF4F8081281B310941094D
:100B90005109C9011F910F91FF90EF900895DF92C5
:100BA000EF92FF920F931F93FC01E480F580068182
:100BB0001781D1808081823048F480E090E0A0E10C
:100BC000B0E0E82AF92A0A2B1B2BA5C0843009F4CF
:100BD0009FC0823021F4EE24FF24870105C0E11478
:100BE000F1040105110519F4E0E0F0E096C062811E
:100BF00073819FEF623879070CF05BC022E83FEF0A
:100C0000261B370B2A3131052CF020E030E040E084
:100C100050E02AC0B801A701022E04C0769567955E
:100C2000579547950A94D2F781E090E0A0E0B0E0B4
:100C300004C0880F991FAA1FBB1F2A95D2F70197DE
:100C4000A109B1098E219F21A023B1230097A105FD
:100C5000B10521F081E090E0A0E0B0E09A01AB01A5
:100C6000282B392B4A2B5B2BDA01C9018F77907027
:100C7000A070B07080349105A105B10539F427FF4B
:100C800009C0205C3F4F4F4F5F4F04C0215C3F4F76
:100C90004F4F5F4FE0E0F0E02030A0E03A07A0E0E7
:100CA0004A07A0E45A0710F0E1E0F0E079018A0178
:100CB00027C06038710564F5FB01E158FF4FD8018A
:100CC000C7018F779070A070B07080349105A10536
:100CD000B10539F4E7FE0DC080E490E0A0E0B0E09B
:100CE00004C08FE390E0A0E0B0E0E80EF91E0A1F18
:100CF0001B1F17FF05C016950795F794E7943196CB
:100D000087E016950795F794E7948A95D1F705C083
:100D1000EE24FF248701EFEFF0E06E2F6795662742
:100D20006795902F9F77D794DD24D7948E2F869543
:100D3000492F462B582F5D29B701CA011F910F91EA
:100D4000FF90EF90DF900895FC01DB01408151811D
:100D50002281622F6F7770E0221F2227221F93814A
:100D6000892F880F822B282F30E0991F9927991FF0
:100D700011969C93119721153105A9F5411551053F
:100D80006105710511F482E037C082E89FEF139688
:100D90009C938E9312979A01AB0167E0220F331F49
:100DA000441F551F6A95D1F783E08C930DC0220F25
:100DB000331F441F551F12968D919C9113970197D5
:100DC00013969C938E931297203080E0380780E032
:100DD000480780E4580758F314962D933D934D939C
:100DE0005C93179708952F3F310579F4411551050C
:100DF0006105710519F484E08C93089564FF03C0C4
:100E000081E08C9312C01C9210C02F573040139673
:100E10003C932E93129783E08C9387E0440F551FE9
:100E2000661F771F8A95D1F7706414964D935D9372
:100E30006D937C93179708951F93DC01FB019C91A0
:100E4000923008F447C08081823008F443C0943067
:100E500051F411961C91843099F58181682F70E0CE
:100E6000611B71093FC0843021F0923031F482302F
:100E7000B9F18181882389F12DC011961C911197B8
:100E80008230F1F081811817D9F412962D913C919E
:100E90001397828193818217930794F0281739075B
:100EA000BCF014968D919D910D90BC91A02D248144
:100EB000358146815781281739074A075B0718F49F
:100EC000112341F00AC082179307A407B50740F425
:100ED000112319F061E070E005C06FEF7FEF02C0F1
:100EE00060E070E0CB011F910895DF93CF93CDB701
:100EF000DEB7E0E4F0E086E88083ABE2B0E0EBE26E
:100F0000F0E0808182608C93E9E2F0E08CE0808305
:100F1000E0E4F0E01082AAE2B0E0EAE2F0E08081F2
:100F200088608C93AAE2B0E0EAE2F0E08081806120
:100F30008C93ABE2B0E0EBE2F0E080818E7F8C93AB
:100F4000CF91DF910895DF93CF9300D0CDB7DEB777
:100F50008A831982EBE2F0E0808182958695877022
:100F6000882F90E0817090700097A1F3ECE2F0E0A0
:100F70008A818083EBE2F0E0808182958695869578
:100F80008370882F90E081709070882349F0ABE2E5
:100F9000B0E0EBE2F0E0808180648C9381E08983B3
:100FA00089810F900F90CF91DF910895DF93CF93B8
:100FB00000D00F92CDB7DEB79B838A8319828A81D6
:100FC0009B81009771F0EBE2F0E080818823DCF7F1
:100FD000ECE2F0E08081EA81FB81808381E089831B
:100FE00002C082E0898389810F900F900F90CF918A
:100FF000DF910895DF93CF9300D00F92CDB7DEB786
:101000009B838A8319828A819B81009701F117C093
:10101000EBE2F0E08081829586958770882F90E0E2
:10102000817090700097A1F3ACE2B0E0EA81FB819F
:1010300080818C938A819B8101969B838A83EA813C
:10104000FB818081882321F781E0898302C082E0CF
:10105000898389810F900F900F90CF91DF91089530
:10106000DF93CF9300D000D000D0CDB7DEB79E8302
:101070008D831C828D819E81009791F11B821A8243
:10108000EBE2F0E080818823DCF7ECE2F0E08081A5
:101090008983EBE2F0E080818823DCF7ECE2F0E08A
:1010A00080818B839B818981981761F48A81282FA5
:1010B00030E08D819E81FC01E20FF31F108281E000
:1010C0008C8310C08A81282F30E08D819E81FC01A5
:1010D000E20FF31F8B8180838A818F5F8A83D9CF50
:1010E00082E08C838C8126960FB6F894DEBF0FBE0B
:1010F000CDBFCF91DF910895DF93CF9300D000D083
:101100000F92CDB7DEB78A836B8319828A818430D0
:10111000A8F58A81282F30E03D832C838C819D8126
:1011200081309105D1F02C813D81223031052CF4A4
:101130008C819D81009761F01EC02C813D81223001
:10114000310581F08C819D818330910581F013C040
:10115000EAE3F0E08B8180830EC0E7E3F0E08B816F
:10116000808309C0E4E3F0E08B81808304C0E1E385
:10117000F0E08B81808381E0898302C083E08983F2
:1011800089810F900F900F900F900F90CF91DF916A
:101190000895DF93CF9300D000D00F92CDB7DEB784
:1011A0008A836B8319828A818430A8F58A81282FEB
:1011B00030E03D832C838C819D8181309105D1F07D
:1011C0002C813D81223031052CF48C819D8100974A
:1011D00061F01EC02C813D812230310581F08C816F
:1011E0009D818330910581F013C0EBE3F0E08B81AA
:1011F00080830EC0E8E3F0E08B81808309C0E5E3E3
:10120000F0E08B81808304C0E2E3F0E08B81808397
:1012100081E0898302C083E0898389810F900F90E8
:101220000F900F900F90CF91DF910895DF93CF93A0
:1012300000D000D0CDB7DEB78A8319828A8184308E
:1012400008F041C08A81282F30E03C832B838B81BA
:101250009C8181309105E9F02B813C812230310560
:101260002CF48B819C81009761F02AC02B813C81FA
:1012700022303105B1F08B819C8183309105C9F01A
:101280001FC0ABE3B0E0EBE3F0E0808180958C938E
:1012900017C0A8E3B0E0E8E3F0E0808180958C938C
:1012A0000FC0A5E3B0E0E5E3F0E0808180958C938A
:1012B00007C0A2E3B0E0E2E3F0E0808180958C9388
:1012C00081E0898302C083E0898389810F900F9038
:1012D0000F900F90CF91DF910895DF93CF9300D0BF
:1012E00000D000D0CDB7DEB78A837C836B831982B0
:1012F0008B819C81009709F443C08A818430E8F592
:101300008A81282F30E03E832D838D819E8181301C
:101310009105E1F02D813E81223031052CF48D8143
:101320009E81009761F026C02D813E8122303105DB
:10133000A1F08D819E8183309105B1F01BC0E9E35E
:10134000F0E08081EB81FC81808314C0E6E3F0E073
:101350008081EB81FC8180830DC0E3E3F0E080813C
:10136000EB81FC81808306C0E0E3F0E08081EB81CB
:10137000FC81808381E0898305C083E0898302C08A
:1013800082E08983898126960FB6F894DEBF0FBE6E
:10139000CDBFCF91DF910895DF93CF9300D000D0E0
:1013A00000D0CDB7DEB78A836B834C8319828A81E4
:1013B000843008F0DCC08B81883008F0D8C08C8184
:1013C000823008F0D4C08A81282F30E03E832D83FC
:1013D0008D819E818130910509F443C02D813E812C
:1013E000223031052CF48D819E81009771F0BCC0B4
:1013F0002D813E812230310509F45FC08D819E81AF
:101400008330910509F485C0AFC08C818823A9F48D
:10141000AAE3B0E0EAE3F0E08081482F8B81282F37
:1014200030E081E090E0022E02C0880F991F0A94FC
:10143000E2F7809584238C9397C0AAE3B0E0EAE3B7
:10144000F0E08081482F8B81282F30E081E090E010
:10145000022E02C0880F991F0A94E2F7842B8C9306
:1014600083C08C818823A9F4A7E3B0E0E7E3F0E030
:101470008081482F8B81282F30E081E090E0022E80
:1014800002C0880F991F0A94E2F7809584238C93F9
:101490006BC0A7E3B0E0E7E3F0E08081482F8B81E9
:1014A000282F30E081E090E0022E02C0880F991FC3
:1014B0000A94E2F7842B8C9357C08C818823A9F47B
:1014C000A4E3B0E0E4E3F0E08081482F8B81282F93
:1014D00030E081E090E0022E02C0880F991F0A944C
:1014E000E2F7809584238C933FC0A4E3B0E0E4E36B
:1014F000F0E08081482F8B81282F30E081E090E060
:10150000022E02C0880F991F0A94E2F7842B8C9355
:101510002BC08C818823A9F4A1E3B0E0E1E3F0E0E3
:101520008081482F8B81282F30E081E090E0022ECF
:1015300002C0880F991F0A94E2F7809584238C9348
:1015400013C0A1E3B0E0E1E3F0E08081482F8B819C
:10155000282F30E081E090E0022E02C0880F991F12
:101560000A94E2F7842B8C9381E0898302C083E0A4
:101570008983898126960FB6F894DEBF0FBECDBF52
:10158000CF91DF910895DF93CF9300D000D000D0AA
:10159000CDB7DEB78A836B834C8319828A8184300E
:1015A00008F0DCC08B81883008F0D8C08C81823094
:1015B00008F0D4C08A81282F30E03E832D838D81AE
:1015C0009E818130910509F443C02D813E812230F6
:1015D00031052CF48D819E81009771F0BCC02D8166
:1015E0003E812230310509F45FC08D819E818330B8
:1015F000910509F485C0AFC08C818823A9F4ABE3C1
:10160000B0E0EBE3F0E08081482F8B81282F30E0C1
:1016100081E090E0022E02C0880F991F0A94E2F741
:10162000809584238C9397C0ABE3B0E0EBE3F0E0CC
:101630008081482F8B81282F30E081E090E0022EBE
:1016400002C0880F991F0A94E2F7842B8C9383C001
:101650008C818823A9F4A8E3B0E0E8E3F0E080817E
:10166000482F8B81282F30E081E090E0022E02C0CD
:10167000880F991F0A94E2F7809584238C936BC09E
:10168000A8E3B0E0E8E3F0E08081482F8B81282FC9
:1016900030E081E090E0022E02C0880F991F0A948A
:1016A000E2F7842B8C9357C08C818823A9F4A5E39F
:1016B000B0E0E5E3F0E08081482F8B81282F30E017
:1016C00081E090E0022E02C0880F991F0A94E2F791
:1016D000809584238C933FC0A5E3B0E0E5E3F0E080
:1016E0008081482F8B81282F30E081E090E0022E0E
:1016F00002C0880F991F0A94E2F7842B8C932BC0A9
:101700008C818823A9F4A2E3B0E0E2E3F0E08081D9
:10171000482F8B81282F30E081E090E0022E02C01C
:10172000880F991F0A94E2F7809584238C9313C045
:10173000A2E3B0E0E2E3F0E08081482F8B81282F24
:1017400030E081E090E0022E02C0880F991F0A94D9
:10175000E2F7842B8C9381E0898302C083E0898344
:10176000898126960FB6F894DEBF0FBECDBFCF910C
:10177000DF910895DF93CF9300D000D00F92CDB7C3
:10178000DEB78A836B8319828A81843008F075C042
:101790008B81883008F071C08A81282F30E03D832A
:1017A0002C838C819D818130910549F12C813D8173
:1017B000223031052CF48C819D81009761F05AC054
:1017C0002C813D812230310571F18C819D818330E6
:1017D0009105E9F14FC0ABE3B0E0EBE3F0E08081CD
:1017E000482F8B81282F30E081E090E0022E02C04C
:1017F000880F991F0A94E2F784278C933BC0A8E3D3
:10180000B0E0E8E3F0E08081482F8B81282F30E0C2
:1018100081E090E0022E02C0880F991F0A94E2F73F
:1018200084278C9327C0A5E3B0E0E5E3F0E0808156
:10183000482F8B81282F30E081E090E0022E02C0FB
:10184000880F991F0A94E2F784278C9313C0A2E3B0
:10185000B0E0E2E3F0E08081482F8B81282F30E078
:1018600081E090E0022E02C0880F991F0A94E2F7EF
:1018700084278C9381E0898302C083E089838981F6
:101880000F900F900F900F900F90CF91DF910895D0
:10189000DF93CF93CDB7DEB727970FB6F894DEBFAF
:1018A0000FBECDBF8A836B835D834C8319828C818D
:1018B0009D81009709F47EC08A81843008F077C04A
:1018C0008B81883008F073C08A81282F30E03F83F5
:1018D0002E834E815F814130510559F18E819F8168
:1018E0008230910534F42E813F812115310569F054
:1018F0005BC04E815F814230510579F18E819F81BD
:101900008330910509F43DC04FC0E9E3F0E08081E8
:10191000282F30E08B81882F90E0A90102C05595D7
:1019200047958A95E2F7CA018170EC81FD81808339
:101930003BC0E6E3F0E08081282F30E08B81882FE8
:1019400090E0A90102C0559547958A95E2F7CA0132
:101950008170EC81FD81808327C0E3E3F0E080812A
:10196000282F30E08B81882F90E0A90102C0559587
:1019700047958A95E2F7CA018170EC81FD818083E9
:1019800013C0E0E3F0E08081282F30E08B81882FC6
:1019900090E0A90102C0559547958A95E2F7CA01E2
:1019A0008170EC81FD81808381E0898305C083E0C3
:1019B000898302C082E08983898127960FB6F894D3
:1019C000DEBF0FBECDBFCF91DF910895DF93CF93E0
:1019D00000D000D00F92CDB7DEB78A836B8381E051
:1019E00089838A81282F30E03D832C838C819D81DF
:1019F0008434910509F43FC02C813D8125343105A3
:101A000084F48C819D818234910559F12C813D8132
:101A1000233431055CF58C819D8181349105E1F0A1
:101A20002FC02C813D8122363105D9F08C819D81DA
:101A30008336910534F42C813D812136310561F0E6
:101A40001FC08C819D818336910581F02C813D8161
:101A50002436310581F014C0EAE3F0E08B81808305
:101A600011C0E7E3F0E08B8180830CC0E4E3F0E099
:101A70008B81808307C0E1E3F0E08B81808302C02B
:101A80008FEF898389810F900F900F900F900F90A7
:101A9000CF91DF910895DF93CF9300D000D00F92C4
:101AA000CDB7DEB78A836B8381E089838A81282F53
:101AB00030E03D832C838C819D818434910509F431
:101AC0003FC02C813D812534310584F48C819D817A
:101AD0008234910559F12C813D81233431055CF527
:101AE0008C819D8181349105E1F02FC02C813D8155
:101AF00022363105D9F08C819D818336910534F4ED
:101B00002C813D812136310561F01FC08C819D8182
:101B10008336910581F02C813D812436310581F099
:101B200014C0EBE3F0E08B81808311C0E8E3F0E0C8
:101B30008B8180830CC0E5E3F0E08B81808307C05C
:101B4000E2E3F0E08B81808302C08FEF898389819B
:101B50000F900F900F900F900F90CF91DF910895FD
:101B6000DF93CF9300D000D0CDB7DEB78A838A81D0
:101B7000282F30E03C832B838B819C81843491051A
:101B800009F43FC02B813C812534310584F48B81DD
:101B90009C818234910559F12B813C81233431059C
:101BA0005CF58B819C8181349105E1F02FC02B8104
:101BB0003C8122363105D9F08B819C818336910599
:101BC00034F42B813C812136310561F01FC08B81BB
:101BD0009C818336910581F02B813C81243631052F
:101BE00081F014C0E9E3F0E08081898311C0E6E36D
:101BF000F0E0808189830CC0E3E3F0E08081898399
:101C000007C0E0E3F0E08081898302C08FEF898321
:101C10008981992787FD90950F900F900F900F90D5
:101C2000CF91DF910895DF93CF93CDB7DEB72E9795
:101C30000FB6F894DEBF0FBECDBF8A836B834C8393
:101C400081E089838A81282F30E03E872D878D852A
:101C50009E858434910509F4DDC02D853E852534AB
:101C6000310594F48D859E858234910509F462C016
:101C70002D853E85233431050CF094C08D859E85DD
:101C800081349105F9F0FEC02D853E85223631055F
:101C900009F450C08D859E858336910534F42D85D9
:101CA0003E852136310571F0EDC08D859E858336E8
:101CB000910509F477C02D853E852436310509F458
:101CC000A9C0E0C08C81282F30E03C872B878B8512
:101CD0009C85009731F02B853C8521303105B1F092
:101CE000D3C0AAE3B0E0EAE3F0E08081482F8B8123
:101CF000282F30E081E090E0022E02C0880F991F6B
:101D00000A94E2F7809584238C93BEC0AAE3B0E0E6
:101D1000EAE3F0E08081482F8B81282F30E081E0DA
:101D200090E0022E02C0880F991F0A94E2F7842BDC
:101D30008C93AAC08C81282F30E03A872987898527
:101D40009A85009731F029853A8521303105B1F027
:101D50009BC0A7E3B0E0E7E3F0E08081482F8B81F0
:101D6000282F30E081E090E0022E02C0880F991FFA
:101D70000A94E2F7809584238C9386C0A7E3B0E0B1
:101D8000E7E3F0E08081482F8B81282F30E081E06D
:101D900090E0022E02C0880F991F0A94E2F7842B6C
:101DA0008C9372C08C81282F30E038872F838F81ED
:101DB0009885009731F02F81388521303105B1F0B9
:101DC00063C0A4E3B0E0E4E3F0E08081482F8B81BE
:101DD000282F30E081E090E0022E02C0880F991F8A
:101DE0000A94E2F7809584238C934EC0A4E3B0E07C
:101DF000E4E3F0E08081482F8B81282F30E081E000
:101E000090E0022E02C0880F991F0A94E2F7842BFB
:101E10008C933AC08C81282F30E03E832D838D81B6
:101E20009E81009731F02D813E8121303105B1F046
:101E30002BC0A1E3B0E0E1E3F0E08081482F8B818B
:101E4000282F30E081E090E0022E02C0880F991F19
:101E50000A94E2F7809584238C9316C0A1E3B0E046
:101E6000E1E3F0E08081482F8B81282F30E081E092
:101E700090E0022E02C0880F991F0A94E2F7842B8B
:101E80008C9302C08FEF898389812E960FB6F894C8
:101E9000DEBF0FBECDBFCF91DF910895DF93CF930B
:101EA00000D000D00F92CDB7DEB78A836B838B81D1
:101EB000883018F08FEF898390C081E089838A8110
:101EC000282F30E03D832C838C819D8184349105C3
:101ED00009F46DC02C813D81253431058CF48C8151
:101EE0009D8182349105D9F12C813D8123343105C6
:101EF0000CF049C08C819D8181349105E1F06BC06B
:101F00002C813D812236310551F18C819D818336B2
:101F1000910534F42C813D812136310561F05BC09F
:101F20008C819D818336910571F12C813D81243610
:101F30003105E9F150C0ABE3B0E0EBE3F0E08081C4
:101F4000482F8B81282F30E081E090E0022E02C0E4
:101F5000880F991F0A94E2F7842B8C933EC0A8E364
:101F6000B0E0E8E3F0E08081482F8B81282F30E05B
:101F700081E090E0022E02C0880F991F0A94E2F7D8
:101F8000842B8C932AC0A5E3B0E0E5E3F0E08081E8
:101F9000482F8B81282F30E081E090E0022E02C094
:101FA000880F991F0A94E2F7842B8C9316C0A2E342
:101FB000B0E0E2E3F0E08081482F8B81282F30E011
:101FC00081E090E0022E02C0880F991F0A94E2F788
:101FD000842B8C9302C08FEF898389810F900F909F
:101FE0000F900F900F90CF91DF910895DF93CF93D3
:101FF00000D000D00F92CDB7DEB78A836B838B8180
:10200000883018F08FEF898395C081E089838A81B9
:10201000282F30E03D832C838C819D818434910571
:1020200009F471C02C813D81253431058CF48C81FB
:102030009D8182349105E9F12C813D812334310564
:102040000CF04CC08C819D8181349105E9F070C009
:102050002C813D812236310561F18C819D81833651
:10206000910534F42C813D812136310569F060C041
:102070008C819D818336910589F12C813D812436A7
:10208000310509F440C054C0ABE3B0E0EBE3F0E04D
:102090008081482F8B81282F30E081E090E0022E54
:1020A00002C0880F991F0A94E2F7809584238C93CD
:1020B00041C0A8E3B0E0E8E3F0E08081482F8B81E5
:1020C000282F30E081E090E0022E02C0880F991F97
:1020D0000A94E2F7809584238C932CC0A5E3B0E0AA
:1020E000E5E3F0E08081482F8B81282F30E081E00C
:1020F00090E0022E02C0880F991F0A94E2F78095A3
:1021000084238C9317C0A2E3B0E0E2E3F0E0808187
:10211000482F8B81282F30E081E090E0022E02C012
:10212000880F991F0A94E2F7809584238C9302C04C
:102130008FEF898389810F900F900F900F900F90F0
:10214000CF91DF910895DF93CF9300D000D0CDB72A
:10215000DEB78A8381E089838A81282F30E03C833F
:102160002B838B819C818434910509F43FC02B81A2
:102170003C812534310584F48B819C818234910526
:1021800059F12B813C81233431055CF58B819C8195
:1021900081349105E1F02FC02B813C81223631053D
:1021A000D9F08B819C818336910534F42B813C815D
:1021B0002136310561F01FC08B819C8183369105EA
:1021C00081F02B813C812436310581F014C0EBE392
:1021D000F0E08FEF808311C0E8E3F0E08FEF8083C1
:1021E0000CC0E5E3F0E08FEF808307C0E2E3F0E0AE
:1021F0008FEF808302C08FEF898389810F900F90CA
:102200000F900F90CF91DF910895DF93CF9300D07F
:1022100000D0CDB7DEB78A8381E089838A81282FF9
:1022200030E03C832B838B819C8184349105E1F1E8
:102230002B813C812534310584F48B819C8182344F
:10224000910551F12B813C81233431054CF58B8173
:102250009C8181349105E1F02BC02B813C81223699
:102260003105D1F08B819C818336910534F42B812B
:102270003C812136310561F01BC08B819C81833606
:10228000910571F02B813C812436310569F010C035
:10229000EBE3F0E010820EC0E8E3F0E010820AC049
:1022A000E5E3F0E0108206C0E2E3F0E0108202C055
:1022B0008FEF898389810F900F900F900F90CF91AE
:1022C000DF910895DF93CF9300D000D00F92CDB768
:1022D000DEB78A836B838B81883018F08FEF898318
:1022E00090C081E089838A81282F30E03D832C8350
:1022F0008C819D818434910509F46DC02C813D81D0
:10230000253431058CF48C819D8182349105D9F17D
:102310002C813D81233431050CF049C08C819D8195
:1023200081349105E1F06BC02C813D81223631056D
:1023300051F18C819D818336910534F42C813D814E
:102340002136310561F05BC08C819D81833691051A
:1023500071F12C813D8124363105E9F150C0ABE3A8
:10236000B0E0EBE3F0E08081482F8B81282F30E054
:1023700081E090E0022E02C0880F991F0A94E2F7D4
:1023800084278C933EC0A8E3B0E0E8E3F0E08081CE
:10239000482F8B81282F30E081E090E0022E02C090
:1023A000880F991F0A94E2F784278C932AC0A5E32B
:1023B000B0E0E5E3F0E08081482F8B81282F30E00A
:1023C00081E090E0022E02C0880F991F0A94E2F784
:1023D00084278C9316C0A2E3B0E0E2E3F0E08081B2
:1023E000482F8B81282F30E081E090E0022E02C040
:1023F000880F991F0A94E2F784278C9302C08FEF0D
:10240000898389810F900F900F900F900F90CF913B
:10241000DF910895DF93CF9300D000D00F92CDB716
:10242000DEB78A836B8319828B81883018F08FEF37
:10243000898386C08A81282F30E03D832C838C815C
:102440009D818434910509F467C02C813D81253438
:1024500031058CF48C819D8182349105C9F12C81E8
:102460003D81233431050CF045C08C819D81813440
:102470009105E1F063C02C813D812236310541F1A7
:102480008C819D818336910534F42C813D812136E8
:10249000310561F053C08C819D818336910551F1E6
:1024A0002C813D8124363105B9F148C0E9E3F0E0E3
:1024B0008081482F8B81282F30E081E090E0022E30
:1024C00002C0880F991F0A94E2F78423898338C0D9
:1024D000E6E3F0E08081482F8B81282F30E081E017
:1024E00090E0022E02C0880F991F0A94E2F784231D
:1024F000898326C0E3E3F0E08081482F8B81282F79
:1025000030E081E090E0022E02C0880F991F0A940B
:10251000E2F78423898314C0E0E3F0E08081482F50
:102520008B81282F30E081E090E0022E02C0880FDE
:10253000991F0A94E2F78423898302C08FEF89836D
:1025400089810F900F900F900F900F90CF91DF9196
:102550000895DF93CF93CDB7DEB76C970FB6F8949D
:10256000DEBF0FBECDBFA4E3B0E0E4E3F0E08081C6
:10257000806E8C93E5E3F0E01082A7E3B0E0E7E340
:10258000F0E08081806F8C93A8E3B0E0E8E3F0E0B6
:1025900080818C9380E090E0A0E2B1E4898F9A8FF3
:1025A000AB8FBC8F698D7A8D8B8D9C8D20E030E058
:1025B0004AE753E40E941F02DC01CB018D8B9E8B06
:1025C000AF8BB88F6D897E898F89988D20E030E040
:1025D00040E85FE30E94250488232CF481E090E02A
:1025E0009C8B8B8B3FC06D897E898F89988D20E075
:1025F0003FEF4FE757E40E94C50318164CF5698D6D
:102600007A8D8B8D9C8D20E030E040E251E40E9479
:102610001F02DC01CB01BC01CD010E944900DC019D
:10262000CB019C8B8B8B0FC089E190E09A8B898BBF
:1026300089899A890197F1F79A8B898B8B899C8973
:1026400001979C8B8B8B8B899C89009769F714C0B1
:102650006D897E898F89988D0E944900DC01CB01AC
:102660009C8B8B8B8B899C89988B8F878F85988986
:102670000197F1F7988B8F8788E20E94C3138CE053
:102680000E94C31386E00E94C31380E80E94C31314
:1026900080E090E0A0EAB1E48B879C87AD87BE879D
:1026A0006B857C858D859E8520E030E04AE753E48C
:1026B0000E941F02DC01CB018F839887A987BA870C
:1026C0006F81788589859A8520E030E040E85FE376
:1026D0000E94250488232CF481E090E09E838D8362
:1026E0003FC06F81788589859A8520E03FEF4FE76D
:1026F00057E40E94C50318164CF56B857C858D85C3
:102700009E8520E030E040E251E40E941F02DC019F
:10271000CB01BC01CD010E944900DC01CB019E83AD
:102720008D830FC089E190E09C838B838B819C819A
:102730000197F1F79C838B838D819E8101979E8306
:102740008D838D819E81009769F714C06F81788594
:1027500089859A850E944900DC01CB019E838D8387
:102760008D819E819A83898389819A810197F1F76E
:102770009A8389836C960FB6F894DEBF0FBECDBFE7
:10278000CF91DF9108950F931F93DF93CF93CDB730
:10279000DEB7C954D0400FB6F894DEBF0FBECDBF30
:1027A000FE01E75BFF4F8083A5E3B0E0E5E3F0E0E7
:1027B00080818F7B8C93A5E3B0E0E5E3F0E080813E
:1027C0008F7D8C93A8E3B0E0E8E3F0E080818F7721
:1027D0008C93A8E3B0E0E8E3F0E080818F7B8C93FA
:1027E000A8E3B0E0E8E3F0E080818F7D8C93A8E37C
:1027F000B0E0E8E3F0E080818F7E8C93FE01E75B40
:10280000FF4F808188233CF4A8E3B0E0E8E3F0E0E8
:10281000808180688C93FE01E75BFF4F8081882F69
:1028200090E080749070009739F0A8E3B0E0E8E39E
:10283000F0E0808180648C93FE01E75BFF4F808134
:10284000882F90E080729070009739F0A8E3B0E094
:10285000E8E3F0E0808180628C93FE01E75BFF4F4C
:102860008081882F90E080719070009739F0A8E304
:10287000B0E0E8E3F0E0808180618C93A5E3B0E014
:10288000E5E3F0E0808180688C93FE01EB5BFF4F15
:1028900080E090E0A0E0B0E480839183A283B383E2
:1028A0008E010F5B1F4FFE01EB5BFF4F608171815B
:1028B000828193812BEA3AEA4AEA5EE30E941F0290
:1028C000DC01CB01F80180839183A283B383FE01F5
:1028D000EF5BFF4F608171818281938120E030E066
:1028E00040E85FE30E942504882334F481E0FE0180
:1028F000E05CFF4F80839DC0FE01EF5BFF4F608176
:1029000071818281938120E030E04FE753E40E949F
:10291000C50318160CF07EC0FE01EB5BFF4F608113
:1029200071818281938120E030E04AE754E40E9483
:102930001903DC01CB018CAF9DAFAEAFBFAF6CAD67
:102940007DAD8EAD9FAD20E030E04AE753E40E94BC
:102950001F02DC01CB0188AF99AFAAAFBBAF68AD56
:1029600079AD8AAD9BAD20E030E040E85FE30E94A6
:10297000250488232CF481E090E09FAB8EAB3FC010
:1029800068AD79AD8AAD9BAD20E03FEF4FE757E4EE
:102990000E94C50318164CF56CAD7DAD8EAD9FAD94
:1029A00020E030E040E251E40E941F02DC01CB0154
:1029B000BC01CD010E944900DC01CB019FAB8EAB75
:1029C0000FC089E190E09DAB8CAB8CA99DA90197CC
:1029D000F1F79DAB8CAB8EA99FA901979FAB8EABF6
:1029E0008EA99FA9009769F72DC068AD79AD8AAD12
:1029F0009BAD0E944900DC01CB019FAB8EAB8EA941
:102A00009FA99BAB8AAB8AA99BA90197F1F79BABC6
:102A10008AAB18C0FE01EF5BFF4F6081718182813C
:102A200093810E944900DC01CB01FE01E05CFF4F75
:102A30008083FE01E05CFF4F808189AB89A98A9584
:102A4000F1F789ABA5E3B0E0E5E3F0E080818F77B3
:102A50008C93A8E3B0E0E8E3F0E080818F778C937B
:102A6000A8E3B0E0E8E3F0E080818F7B8C93A8E3FB
:102A7000B0E0E8E3F0E080818F7D8C93A8E3B0E0E4
:102A8000E8E3F0E080818F7E8C93FE01E75BFF4FEF
:102A90008081882F90E088709070009739F0A8E3CB
:102AA000B0E0E8E3F0E0808180688C93FE01E75BB2
:102AB000FF4F8081882F90E084709070009739F0EC
:102AC000A8E3B0E0E8E3F0E0808180648C93FE014D
:102AD000E75BFF4F8081882F90E0827090700097B5
:102AE00039F0A8E3B0E0E8E3F0E0808180628C9305
:102AF000FE01E75BFF4F8081882F90E0817090702E
:102B0000882339F0A8E3B0E0E8E3F0E08081806159
:102B10008C93A5E3B0E0E5E3F0E0808180688C93DE
:102B200080E090E0A0E0B0E48DA79EA7AFA7B8AB8F
:102B30006DA57EA58FA598A92BEA3AEA4AEA5EE33D
:102B40000E941F02DC01CB0189A79AA7ABA7BCA7F3
:102B500069A57AA58BA59CA520E030E040E85FE35D
:102B60000E94250488231CF481E088A791C069A5F0
:102B70007AA58BA59CA520E030E04FE753E40E94A6
:102B8000C50318160CF07BC06DA57EA58FA598A96E
:102B900020E030E04AE754E40E941903DC01CB0155
:102BA0008CA39DA3AEA3BFA36CA17DA18EA19FA169
:102BB00020E030E04AE753E40E941F02DC01CB0131
:102BC00088A399A3AAA3BBA368A179A18AA19BA169
:102BD00020E030E040E85FE30E94250488232CF4E5
:102BE00081E090E09F8F8E8F3FC068A179A18AA17C
:102BF0009BA120E03FEF4FE757E40E94C503181662
:102C00004CF56CA17DA18EA19FA120E030E040E2B7
:102C100051E40E941F02DC01CB01BC01CD010E94E6
:102C20004900DC01CB019F8F8E8F0FC089E190E0BE
:102C30009D8F8C8F8C8D9D8D0197F1F79D8F8C8F43
:102C40008E8D9F8D01979F8F8E8F8E8D9F8D00977C
:102C500069F724C068A179A18AA19BA10E944900BB
:102C6000DC01CB019F8F8E8F8E8D9F8D9B8F8A8FE6
:102C70008A8D9B8D0197F1F79B8F8A8F0FC069A575
:102C80007AA58BA59CA50E944900DC01CB0188A7F1
:102C900088A5898F898D8A95F1F7898FA5E3B0E0A2
:102CA000E5E3F0E080818F778C9380E090E0A6E907
:102CB000B3E48D8B9E8BAF8BB88F6D897E898F89A6
:102CC000988D2BEA3AEA4AEA5EE30E941F02DC0191
:102CD000CB01898B9A8BAB8BBC8B69897A898B8969
:102CE0009C8920E030E040E85FE30E9425048823CF
:102CF0001CF481E0888B91C069897A898B899C89D1
:102D000020E030E04FE753E40E94C50318160CF0B2
:102D10007BC06D897E898F89988D20E030E04AE7FD
:102D200054E40E941903DC01CB018C879D87AE8798
:102D3000BF876C857D858E859F8520E030E04AE7E2
:102D400053E40E941F02DC01CB0188879987AA8780
:102D5000BB87688579858A859B8520E030E040E8DF
:102D60005FE30E94250488232CF481E090E09F8398
:102D70008E833FC0688579858A859B8520E03FEFFB
:102D80004FE757E40E94C50318164CF56C857D8506
:102D90008E859F8520E030E040E251E40E941F02D2
:102DA000DC01CB01BC01CD010E944900DC01CB015B
:102DB0009F838E830FC089E190E09D838C838C81FB
:102DC0009D810197F1F79D838C838E819F8101976F
:102DD0009F838E838E819F81009769F724C06885C9
:102DE00079858A859B850E944900DC01CB019F8300
:102DF0008E838E819F819B838A838A819B810197A9
:102E0000F1F79B838A830FC069897A898B899C89B2
:102E10000E944900DC01CB01888B888989838981E4
:102E20008A95F1F78983C75BDF4F0FB6F894DEBF51
:102E30000FBECDBFCF91DF911F910F9108950F93DA
:102E40001F93DF93CF93CDB7DEB7C954D0400FB6F1
:102E5000F894DEBF0FBECDBFFE01E75BFF4F80835E
:102E6000A5E3B0E0E5E3F0E080818F7B8C93A5E300
:102E7000B0E0E5E3F0E0808180628C93A8E3B0E00D
:102E8000E8E3F0E080818F778C93A8E3B0E0E8E39B
:102E9000F0E080818F7B8C93A8E3B0E0E8E3F0E082
:102EA00080818F7D8C93A8E3B0E0E8E3F0E080813F
:102EB0008F7E8C93FE01E75BFF4F808188233CF47B
:102EC000A8E3B0E0E8E3F0E0808180688C93FE0145
:102ED000E75BFF4F8081882F90E0807490700097AF
:102EE00039F0A8E3B0E0E8E3F0E0808180648C93FF
:102EF000FE01E75BFF4F8081882F90E08072907029
:102F0000009739F0A8E3B0E0E8E3F0E08081806268
:102F10008C93FE01E75BFF4F8081882F90E08071EA
:102F20009070009739F0A8E3B0E0E8E3F0E080812A
:102F300080618C93A5E3B0E0E5E3F0E080818068F8
:102F40008C93FE01EB5BFF4F80E090E0A0E0B0E4EB
:102F500080839183A283B3838E010F5B1F4FFE0199
:102F6000EB5BFF4F60817181828193812BEA3AEAAA
:102F70004AEA5EE30E941F02DC01CB01F801808374
:102F80009183A283B383FE01EF5BFF4F6081718168
:102F90008281938120E030E040E85FE30E942504D5
:102FA000882334F481E0FE01E05CFF4F80839DC004
:102FB000FE01EF5BFF4F608171818281938120E090
:102FC00030E04FE753E40E94C50318160CF07EC0B2
:102FD000FE01EB5BFF4F608171818281938120E074
:102FE00030E04AE754E40E941903DC01CB018CAFC6
:102FF0009DAFAEAFBFAF6CAD7DAD8EAD9FAD20E0F0
:1030000030E04AE753E40E941F02DC01CB0188AFA5
:1030100099AFAAAFBBAF68AD79AD8AAD9BAD20E0EB
:1030200030E040E85FE30E94250488232CF481E02F
:1030300090E09FAB8EAB3FC068AD79AD8AAD9BADE4
:1030400020E03FEF4FE757E40E94C50318164CF508
:103050006CAD7DAD8EAD9FAD20E030E040E251E43F
:103060000E941F02DC01CB01BC01CD010E9449007E
:10307000DC01CB019FAB8EAB0FC089E190E09DAB33
:103080008CAB8CA99DA90197F1F79DAB8CAB8EA958
:103090009FA901979FAB8EAB8EA99FA9009769F757
:1030A0002DC068AD79AD8AAD9BAD0E944900DC01B1
:1030B000CB019FAB8EAB8EA99FA99BAB8AAB8AA994
:1030C0009BA90197F1F79BAB8AAB18C0FE01EF5BA0
:1030D000FF4F60817181828193810E944900DC01F0
:1030E000CB01FE01E05CFF4F8083FE01E05CFF4FFF
:1030F000808189AB89A98A95F1F789ABA5E3B0E016
:10310000E5E3F0E080818F778C93A8E3B0E0E8E31B
:10311000F0E080818F778C93A8E3B0E0E8E3F0E003
:1031200080818F7B8C93A8E3B0E0E8E3F0E08081BE
:103130008F7D8C93A8E3B0E0E8E3F0E080818F7EA0
:103140008C93FE01E75BFF4F8081882F90E08870B1
:103150009070009739F0A8E3B0E0E8E3F0E08081F8
:1031600080688C93FE01E75BFF4F8081882F90E0A1
:1031700084709070009739F0A8E3B0E0E8E3F0E0E5
:10318000808180648C93FE01E75BFF4F8081882FF4
:1031900090E082709070009739F0A8E3B0E0E8E327
:1031A000F0E0808180628C93FE01E75BFF4F8081BD
:1031B000882F90E081709070882339F0A8E3B0E008
:1031C000E8E3F0E0808180618C93A5E3B0E0E5E383
:1031D000F0E0808180688C9380E090E0A0E0B0E433
:1031E0008DA79EA7AFA7B8AB6DA57EA58FA598A903
:1031F0002BEA3AEA4AEA5EE30E941F02DC01CB01B5
:1032000089A79AA7ABA7BCA769A57AA58BA59CA5FA
:1032100020E030E040E85FE30E94250488231CF4AE
:1032200081E088A791C069A57AA58BA59CA520E01F
:1032300030E04FE753E40E94C50318160CF07BC042
:103240006DA57EA58FA598A920E030E04AE754E45B
:103250000E941903DC01CB018CA39DA3AEA3BFA3E5
:103260006CA17DA18EA19FA120E030E04AE753E44C
:103270000E941F02DC01CB0188A399A3AAA3BBA3D0
:1032800068A179A18AA19BA120E030E040E85FE33A
:103290000E94250488232CF481E090E09F8F8E8F7C
:1032A0003FC068A179A18AA19BA120E03FEF4FE731
:1032B00057E40E94C50318164CF56CA17DA18EA1A0
:1032C0009FA120E030E040E251E40E941F02DC01B7
:1032D000CB01BC01CD010E944900DC01CB019F8FD5
:1032E0008E8F0FC089E190E09D8F8C8F8C8D9D8D8E
:1032F0000197F1F79D8F8C8F8E8D9F8D01979F8FFA
:103300008E8F8E8D9F8D009769F724C068A179A15B
:103310008AA19BA10E944900DC01CB019F8F8E8F67
:103320008E8D9F8D9B8F8A8F8A8D9B8D0197F1F754
:103330009B8F8A8F0FC069A57AA58BA59CA50E943B
:103340004900DC01CB0188A788A5898F898D8A95E2
:10335000F1F7898FA5E3B0E0E5E3F0E080818F77B6
:103360008C9380E090E0A6E9B3E48D8B9E8BAF8BCD
:10337000B88F6D897E898F89988D2BEA3AEA4AEA5F
:103380005EE30E941F02DC01CB01898B9A8BAB8B21
:10339000BC8B69897A898B899C8920E030E040E880
:1033A0005FE30E94250488231CF481E0888B91C090
:1033B00069897A898B899C8920E030E04FE753E462
:1033C0000E94C50318160CF07BC06D897E898F8919
:1033D000988D20E030E04AE754E40E941903DC01B4
:1033E000CB018C879D87AE87BF876C857D858E8559
:1033F0009F8520E030E04AE753E40E941F02DC0191
:10340000CB0188879987AA87BB87688579858A8554
:103410009B8520E030E040E85FE30E94250488239C
:103420002CF481E090E09F838E833FC0688579858E
:103430008A859B8520E03FEF4FE757E40E94C50354
:1034400018164CF56C857D858E859F8520E030E0D3
:1034500040E251E40E941F02DC01CB01BC01CD011E
:103460000E944900DC01CB019F838E830FC089E15C
:1034700090E09D838C838C819D810197F1F79D83E2
:103480008C838E819F8101979F838E838E819F8104
:10349000009769F724C0688579858A859B850E9495
:1034A0004900DC01CB019F838E838E819F819B83AA
:1034B0008A838A819B810197F1F79B838A830FC05E
:1034C00069897A898B899C890E944900DC01CB013A
:1034D000888B8889898389818A95F1F78983C75B7D
:1034E000DF4F0FB6F894DEBF0FBECDBFCF91DF9197
:1034F0001F910F910895DF93CF93CDB7DEB76497F7
:103500000FB6F894DEBF0FBECDBF8B8B6C8B80E8FF
:103510008F8780EC888B84E9898B84ED8A8B8B89FB
:10352000882F90E09C0121503040CE010F96FC0185
:10353000E20FF31F90818C89890F81500E94C31381
:1035400080E090E0A0E2B1E48B879C87AD87BE87E6
:103550006B857C858D859E8520E030E04AE753E4CD
:103560000E941F02DC01CB018F839887A987BA874D
:103570006F81788589859A8520E030E040E85FE3B7
:103580000E94250488232CF481E090E09E838D83A3
:103590003FC06F81788589859A8520E03FEF4FE7AE
:1035A00057E40E94C50318164CF56B857C858D8504
:1035B0009E8520E030E040E251E40E941F02DC01E1
:1035C000CB01BC01CD010E944900DC01CB019E83EF
:1035D0008D830FC089E190E09C838B838B819C81DC
:1035E0000197F1F79C838B838D819E8101979E8348
:1035F0008D838D819E81009769F714C06F817885D6
:1036000089859A850E944900DC01CB019E838D83C8
:103610008D819E819A83898389819A810197F1F7AF
:103620009A83898364960FB6F894DEBF0FBECDBF30
:10363000CF91DF910895DF93CF93CDB7DEB72A976F
:103640000FB6F894DEBF0FBECDBF998788876A8713
:10365000198286E0FE013296DF01982F1D929A951D
:10366000E9F7888599859E012E5F3F4FB9014AE0B1
:1036700050E00E94D720198215C08981982F9F5F42
:103680008A85692F0E947B1A8981282F30E0CE011C
:103690000296FC01E20FF31F80810E941F178981AF
:1036A0008F5F89838981282F30E0CE010296FC014B
:1036B000E20FF31F8081882301F72A960FB6F89452
:1036C000DEBF0FBECDBFCF91DF910895DF93CF93C3
:1036D00000D00F92CDB7DEB79B838A8319820EC0CC
:1036E0008981282F30E08A819B81FC01E20FF31F42
:1036F00080810E941F1789818F5F89838981282F8C
:1037000030E08A819B81FC01E20FF31F80818823D6
:1037100039F70F900F900F90CF91DF910895DF93BD
:10372000CF9300D000D0CDB7DEB79B838A836C8364
:1037300019820EC08981282F30E08A819B81FC018B
:10374000E20FF31F80810E941F1789818F5F898399
:1037500099818C81981770F30F900F900F900F90B4
:10376000CF91DF910895DF93CF93CDB7DEB7A697C2
:103770000FB6F894DEBF0FBECDBF81E00E94C31329
:1037800080E090E0A0E0B0E48BA39CA3ADA3BEA337
:103790006BA17CA18DA19EA12BEA3AEA4AEA5EE3E5
:1037A0000E941F02DC01CB018F8F98A3A9A3BAA3AB
:1037B0006F8D78A189A19AA120E030E040E85FE315
:1037C0000E94250488231CF481E08E8F91C06F8DA8
:1037D00078A189A19AA120E030E04FE753E40E944C
:1037E000C50318160CF07BC06BA17CA18DA19EA116
:1037F00020E030E04AE754E40E941903DC01CB01E9
:103800008A8F9B8FAC8FBD8F6A8D7B8D8C8D9D8DAC
:1038100020E030E04AE753E40E941F02DC01CB01C4
:103820008E8B9F8BA88FB98F6E897F89888D998D9C
:1038300020E030E040E85FE30E94250488232CF478
:1038400081E090E09D8B8C8B3FC06E897F89888D55
:10385000998D20E03FEF4FE757E40E94C50318160B
:103860004CF56A8D7B8D8C8D9D8D20E030E040E2A3
:1038700051E40E941F02DC01CB01BC01CD010E947A
:103880004900DC01CB019D8B8C8B0FC089E190E05E
:103890009B8B8A8B8A899B890197F1F79B8B8A8BFB
:1038A0008C899D8901979D8B8C8B8C899D89009734
:1038B00069F724C06E897F89888D998D0E9449009F
:1038C000DC01CB019D8B8C8B8C899D89998B888B9E
:1038D000888999890197F1F7998B888B0FC06F8D33
:1038E00078A189A19AA10E944900DC01CB018E8FA9
:1038F0008E8D8F878F858A95F1F78F8780E090E096
:10390000A0E2B1E48B879C87AD87BE876B857C8501
:103910008D859E8520E030E04AE753E40E941F0237
:10392000DC01CB018F839887A987BA876F8178855F
:1039300089859A8520E030E040E85FE30E94250415
:1039400088232CF481E090E09E838D833FC06F81BB
:10395000788589859A8520E03FEF4FE757E40E94FC
:10396000C50318164CF56B857C858D859E8520E0FA
:1039700030E040E251E40E941F02DC01CB01BC01B7
:10398000CD010E944900DC01CB019E838D830FC0D5
:1039900089E190E09C838B838B819C810197F1F777
:1039A0009C838B838D819E8101979E838D838D81E6
:1039B0009E81009769F714C06F81788589859A8503
:1039C0000E944900DC01CB019E838D838D819E8105
:1039D0009A83898389819A810197F1F79A838983F0
:1039E000A6960FB6F894DEBF0FBECDBFCF91DF9184
:1039F0000895DF93CF9300D000D0CDB7DEB78A8390
:103A00007C836B838A818830F8F48A81882F90E0E8
:103A10000896880F991F880F991F880F991F0E9479
:103A2000C31319820EC08981282F30E08B819C81BD
:103A3000FC01E20FF31F80810E941F1789818F5FB5
:103A400089838981883078F30F900F900F900F90C1
:103A5000CF91DF910895DF93CF9300D000D0CDB701
:103A6000DEB79C838B831A821982EB81FC81808173
:103A7000807F8983898182958F70898389818A304B
:103A800020F08981895C898303C08981805D898375
:103A900089810E941F17EB81FC8180818F708A834E
:103AA0008A818A3020F08A81895C8A8303C08A8176
:103AB000805D8A838A810E941F170F900F900F905C
:103AC0000F90CF91DF910895EF92FF920F931F9384
:103AD000DF93CF93CDB7DEB763970FB6F894DEBF11
:103AE0000FBECDBF9B878A877D876C875F874E8798
:103AF000398B288B1B8B0A8B80E090E0A0E0B0E034
:103B00008E839F83A887B98780E090E0A0E0B0E033
:103B10008A839B83AC83BD8381E089836E817F81AF
:103B20008885998520E030E040E251E40E941F0240
:103B3000DC01CB018E839F83A887B987EA85FB854B
:103B40008081882F90E0C097AA2797FDA095BA2F73
:103B5000BC01CD010E9455049B01AC016E817F81A7
:103B6000888599850E94F201DC01CB018E839F83B9
:103B7000A887B9878A859B8501969B878A87EA856E
:103B8000FB8580818E3251F68A859B8501969B87C5
:103B90008A878981882F90E09C01220F331FC901F9
:103BA000880F991F880F991F820F931F8983EA85B9
:103BB000FB858081882F90E0C097AA2797FDA0956C
:103BC000BA2FBC01CD010E9455047B018C01898173
:103BD000882F90E0AA2797FDA095BA2FBC01CD01B0
:103BE0000E9455049B01AC01C801B7010E94190352
:103BF000DC01CB019C01AD016E817F8188859985B7
:103C00000E94F201DC01CB018E839F83A887B987D4
:103C10008A859B8501969B878A87EA85FB858081BB
:103C20008C3209F0B6CF8A859B8501969B878A875F
:103C3000E889F989A081B181EA85FB8580818C932F
:103C40008A859B8501969B878A878A859B850196B5
:103C50009B878A876A817B818C819D8120E030E00F
:103C600040E251E40E941F02DC01CB018A839B8366
:103C7000AC83BD83EA85FB858081882F90E0C09767
:103C8000AA2797FDA095BA2FBC01CD010E9455042B
:103C90009B01AC016A817B818C819D810E94F20134
:103CA000DC01CB018A839B83AC83BD838A859B85A2
:103CB00001969B878A87EA85FB8580818E3251F643
:103CC0008A859B8501969B878A8781E08983898184
:103CD000882F90E09C01220F331FC901880F991F84
:103CE000880F991F820F931F8983EA85FB85808146
:103CF000882F90E0A0E0B0E0BC01CD010E94070554
:103D0000DC01CB01BC01CD0120E030E040E452E415
:103D10000E94C101DC01CB017C018D018981882FCA
:103D200090E0AA2797FDA095BA2FBC01CD010E9473
:103D300055049B01AC01C801B7010E941903DC01C5
:103D4000CB019C01AD016A817B818C819D810E94A8
:103D5000F201DC01CB018A839B83AC83BD838A851E
:103D60009B8501969B878A87EA85FB8580818C32BB
:103D700009F0ADCF8A859B8501969B878A87EA8962
:103D8000FB89A081B181EA85FB8580818C93EE85DA
:103D9000FF850190F081E02D8A819B81AC81BD81FE
:103DA00080839183A283B383EC85FD850190F081AC
:103DB000E02D8E819F81A885B98580839183A28320
:103DC000B38363960FB6F894DEBF0FBECDBFCF911D
:103DD000DF911F910F91FF90EF900895DF93CF93A4
:103DE00000D00F92CDB7DEB7198280916801282FDD
:103DF00030E03B832A838A819B81009731F02A81BE
:103E00003B812130310541F129C0809169019091B8
:103E10006A01692F41E00E94CC098091690190916B
:103E20006A01692F41E00E94C30A80916B01909161
:103E30006C01692F41E00E94CC0980916B01909147
:103E40006C01692F40E00E94C30A1092A6010E94F3
:103E5000750781E0898302C081E0898389810F90A1
:103E60000F900F90CF91DF9108950F931F93DF93E1
:103E7000CF93CDB7DEB72B970FB6F894DEBF0FBE4A
:103E8000CDBF9D838C837F836E83598748873B8713
:103E90002A8780E20E94A30787E40E94A30785E6A1
:103EA0000E94A30784E70E94A30780E20E94A30761
:103EB00089E60E94A3078EE60E94A30780E20E9483
:103EC000A3071A828C819D81009709F4B8C08E8166
:103ED0009F81009709F4B3C088859985009709F4FC
:103EE000AEC08A859B85009709F4A9C01B82198200
:103EF000CE0103960E94D6078B81843239F0CE0121
:103F000003960E94D6078B818432C9F7CE010396AF
:103F10000E94D607CE0103960E94D607CE010396D3
:103F20000E94D6078B81873409F06DC0CE010396BD
:103F30000E94D6078B81873409F065C0CE010396B5
:103F40000E94D6078B81813409F05DC0CE010396B3
:103F50000E94D6078B818C3209F055C0CE010396A2
:103F60000E94D607CE0103960E94D607CE01039683
:103F70000E94D607CE0103960E94D607CE01039673
:103F80000E94D607CE0103960E94D607CE01039663
:103F90000E94D607CE0103960E94D607CE01039653
:103FA0000E94D607CE0103960E94D607CE01039643
:103FB0000E94D607CE0103960E94D6078B818C32D1
:103FC00011F18981882F90E02B81FC01E359FE4F8C
:103FD000208389818F5F8983CE0103960E94D60753
:103FE0008981882F90E02B81FC01E359FE4F2083CB
:103FF00089818F5F89838B818A3071F78091A601D7
:1040000081608093A6018091A6018170882309F4C4
:1040100073CF8DE691E09E012C5F3F4FAE014A5F6A
:104020005F4FFE013896DE011A96B9019F018D019E
:104030000E94641D1092A60181E08A8302C082E082
:104040008A838A812B960FB6F894DEBF0FBECDBF50
:10405000CF91DF911F910F910895DF93CF93CDB74B
:10406000DEB70E94A9120E94EE1E81E061E00E946C
:104070007B1A8DE40E94A30781E60E94A30789E6CC
:104080000E94A3078EE60E94A3078091A40190914D
:10409000A50161E00E941B1B8BEA91E027EA31E059
:1040A00040EB51E0EFEAF1E0B9019F010E94351FBA
:1040B0008091AB019091AC01A091AD01B091AE01A6
:1040C000BC01CD010E94B304DC01CB0161E00E9480
:1040D0001B1B80E20E94A30780E20E94A30789E4E1
:1040E0000E94A30780E20E94A30781E60E94A30723
:1040F0008DE60E94A30780E20E94A30789E60E9442
:10410000A3078EE60E94A30780E20E94A30787E729
:104110000E94A30788E60E94A30789E60E94A307DE
:104120008CE60E94A30785E60E94A30788E20E940E
:10413000A30781E30E94A30789E20E94A307FFCFA0
:104140002F923F924F925F926F927F928F929F92A7
:10415000AF92BF92CF92DF92EF92FF920F931F9395
:10416000CF93DF93CDB7DEB7CA1BDB0B0FB6F89446
:10417000DEBF0FBECDBF09942A88398848885F8486
:104180006E847D848C849B84AA84B984C884DF80F7
:10419000EE80FD800C811B81AA81B981CE0FD11DDB
:1041A0000FB6F894DEBF0FBECDBFED010895FB0141
:1041B0009F01E8944230C4F04532B4F44A3029F407
:1041C00097FB1EF4909581959F4F642F77270E944F
:1041D0000821805D8A330CF0895D8193CB010097C3
:1041E000A1F716F45DE251931082C9010C94F820F6
:1041F000DC01FC01672F71917723E1F7329704C04E
:104200007C916D9370836291AE17BF07C8F30895D8
:10421000AA1BBB1B51E107C0AA1FBB1FA617B707EC
:1042200010F0A61BB70B881F991F5A95A9F7809508
:0C4230009095BC01CD010895F894FFCFDB
:10423C000000000000000000000102020303030361
:10424C00040404040404040405050505050505051A
:10425C0005050505050505050606060606060606FA
:10426C0006060606060606060606060606060606E2
:10427C0006060606060606060707070707070707CA
:10428C0007070707070707070707070707070707B2
:10429C0007070707070707070707070707070707A2
:1042AC000707070707070707070707070707070792
:1042BC00070707070707070708080808080808087A
:1042CC000808080808080808080808080808080862
:1042DC000808080808080808080808080808080852
:1042EC000808080808080808080808080808080842
:1042FC000808080808080808080808080808080832
:10430C000808080808080808080808080808080821
:10431C000808080808080808080808080808080811
:10432C000808080808080808080808080808080801
:10433C0008080808080808080000000001580000D8
:10434C000000000000000000000000000000000061
:10435C000000000000000000000000000000000051
:10436C000000000000000000000000000000000041
:06437C00000000004800F3
:00000001FF
