:100000000C942A000C9447000C9447000C94470071
:100010000C9447000C9447000C9447000C94470044
:100020000C9447000C9447000C9447000C94470034
:100030000C9447000C9447000C9447000C94470024
:100040000C9447000C9447000C9447000C94470014
:100050000C94470011241FBECFE5D8E0DEBFCDBF12
:1000600011E0A0E6B0E0E4EDFAE102C005900D92E7
:10007000A43BB107D9F711E0A4EBB1E001C01D9298
:10008000AF3BB107E1F70E94AE0C0C94680D0C94E5
:100090000000EF92FF920F931F937B018C0120E0F1
:1000A00030E040E05FE40E941F0288238CF0C8012A
:1000B000B70120E030E040E05FE40E94C1010E940F
:1000C0004F029B01AC01205030404040504806C0D8
:1000D000C801B7010E944F029B01AC01B901CA01DE
:1000E0001F910F91FF90EF900895A0E0B0E0EBE733
:1000F000F0E00C94310DDC012B01FA019C9192305F
:1001000008F439C1EB018881823008F433C194309E
:1001100069F4843009F02FC111969C91119789815F
:10012000981709F428C1A0E6B0E025C1843009F48D
:1001300021C18230A9F4923009F01DC19A01AD01AC
:1001400088E0EA010990AE01E90109929E0181501F
:10015000C1F7E201898111969C918923818308C1AD
:10016000923009F407C112962D903C901397EB0141
:100170008A819B811496AD90BD90CD90DC901797AD
:10018000EC80FD800E811F819101281B390BB90184
:1001900037FF04C066277727621B730B6032710537
:1001A0000CF061C0121613066CF537014801062EDB
:1001B00004C096948794779467940A94D2F721E0C8
:1001C00030E040E050E004C0220F331F441F551FB1
:1001D0006A95D2F721503040404050402E213F21B7
:1001E00040235123211531054105510521F021E01E
:1001F00030E040E050E079018A01E628F72808293C
:1002000019293CC0232BD1F1260E371E350146019A
:10021000062E04C096948794779467940A94D2F734
:1002200021E030E040E050E004C0220F331F441FC3
:10023000551F6A95D2F721503040404050402A2146
:100240003B214C215D21211531054105510521F04E
:1002500021E030E040E050E059016A01A628B728CB
:10026000C828D9280BC0821593052CF01C01AA249C
:10027000BB24650103C0EE24FF24870111969C91E5
:10028000D20111968C91981709F445C0992339F041
:10029000A80197012A193B094C095D0906C0A6016E
:1002A00095012E193F09400B510B57FD08C01182D3
:1002B0003382228224833583468357831DC081E0A5
:1002C00081833382228288279927DC01821B930B4A
:1002D000A40BB50B84839583A683B7830DC0220F2F
:1002E000331F441F551F24833583468357838281E0
:1002F000938101979383828324813581468157813D
:10030000DA01C9010197A109B1098F5F9F4FAF4F72
:10031000BF4328F30BC0918333822282EA0CFB1C7B
:100320000C1D1D1DE482F5820683178383E0808304
:10033000248135814681578157FF1AC0C901AA27F8
:1003400097FDA095BA2F81709070A070B0705695EF
:10035000479537952795822B932BA42BB52B848318
:100360009583A683B7838281938101969383828349
:10037000DF0101C0D201CD01CDB7DEB7E2E10C94BF
:100380004D0DA0E2B0E0E7ECF1E00C943D0D698387
:100390007A838B839C832D833E834F835887E9E048
:1003A000EE2EF12CEC0EFD1ECE010196B7010E943F
:1003B00040048E010F5E1F4FCE010596B8010E94CA
:1003C00040048A8991E089278A8BC701B801AE0170
:1003D000475E5F4F0E9475000E946B03A096E6E0A7
:1003E0000C94590DA0E2B0E0E8EFF1E00C943D0D63
:1003F00069837A838B839C832D833E834F835887C5
:10040000F9E0EF2EF12CEC0EFD1ECE010196B701A6
:100410000E9440048E010F5E1F4FCE010596B80169
:100420000E944004C701B801AE01475E5F4F0E94C1
:1004300075000E946B03A096E6E00C94590DA8E1AC
:10044000B0E0E5E2F2E00C943D0D69837A838B83A2
:100450009C832D833E834F83588789E0E82EF12CBF
:10046000EC0EFD1ECE010196B7010E9440048E01E4
:100470000F5E1F4FCE010596B8010E94400489858A
:10048000823040F08989823028F0C701B8010E948B
:10049000B80401C08FEF6896E6E00C94590DACE00B
:1004A000B0E0E5E5F2E00C94410D69837A838B833B
:1004B0009C83CE010196BE016B5F7F4F0E9440047A
:1004C0008D81823061F1823050F1843021F48E814F
:1004D000882351F12EC02F81388537FD20C06E81D1
:1004E0002F3131051CF06623F9F023C08EE190E036
:1004F000821B930B29853A854B855C8504C05695F4
:100500004795379527958A95D2F76623B1F0509590
:100510004095309521953F4F4F4F5F4F0EC020E0E3
:1005200030E040E050E009C02FEF3FEF4FEF5FE7D2
:1005300004C020E030E040E050E8B901CA012C9648
:10054000E2E00C945D0DA8E0B0E0E9EAF2E00C9482
:10055000390D7B018C01611571058105910519F437
:1005600082E0898360C083E089838EE1C82ED12C2C
:10057000DC82CB82ED82FE820F831887C801B7012F
:100580000E941C03FC013197F7FF3BC02227332751
:100590002E1B3F0B57016801022E04C0D694C7944E
:1005A000B794A7940A94D2F740E050E060E070E07E
:1005B00081E090E0A0E0B0E004C0880F991FAA1F7E
:1005C000BB1F2A95D2F70197A109B1098E219F215E
:1005D000A023B1230097A105B10521F041E050E02F
:1005E00060E070E04A295B296C297D294D835E8398
:1005F0006F8378878EE190E08E1B9F0B9C838B83AB
:1006000012C0309781F00E2E04C0EE0CFF1C001FAC
:10061000111F0A94D2F7ED82FE820F831887CE1A3B
:10062000DF0ADC82CB821A82CE0101960E946B0324
:100630002896EAE00C94550DEF92FF920F931F93CA
:100640007B018C0180E0E81680E0F80681E0080775
:1006500080E0180788F48FEFE816F1040105110512
:1006600031F028F088E090E0A0E0B0E017C080E032
:1006700090E0A0E0B0E012C080E0E81680E0F8066C
:1006800080E0080781E0180728F088E190E0A0E00A
:10069000B0E004C080E190E0A0E0B0E020E230E013
:1006A00040E050E0281B390B4A0B5B0B04C0169549
:1006B0000795F794E7948A95D2F7F701E859FF4F29
:1006C0008081281B310941095109C9011F910F91EE
:1006D000FF90EF900895DF92EF92FF920F931F9398
:1006E000FC01E480F58006811781D1808081823011
:1006F00048F480E090E0A0E1B0E0E82AF92A0A2B73
:100700001B2BA5C0843009F49FC0823021F4EE2455
:10071000FF24870105C0E114F1040105110519F456
:10072000E0E0F0E096C0628173819FEF6238790764
:100730000CF05BC022E83FEF261B370B2A31310556
:100740002CF020E030E040E050E02AC0B801A701E2
:10075000022E04C076956795579547950A94D2F76F
:1007600081E090E0A0E0B0E004C0880F991FAA1FCC
:10077000BB1F2A95D2F70197A109B1098E219F21AC
:10078000A023B1230097A105B10521F081E090E0FD
:10079000A0E0B0E09A01AB01282B392B4A2B5B2B50
:1007A000DA01C9018F779070A070B0708034910524
:1007B000A105B10539F427FF09C0205C3F4F4F4F19
:1007C0005F4F04C0215C3F4F4F4F5F4FE0E0F0E0D0
:1007D0002030A0E03A07A0E04A07A0E45A0710F052
:1007E000E1E0F0E079018A0127C06038710564F525
:1007F000FB01E158FF4FD801C7018F779070A070BF
:10080000B07080349105A105B10539F4E7FE0DC043
:1008100080E490E0A0E0B0E004C08FE390E0A0E0CE
:10082000B0E0E80EF91E0A1F1B1F17FF05C0169542
:100830000795F794E794319687E016950795F79416
:10084000E7948A95D1F705C0EE24FF248701EFEFE6
:10085000F0E06E2F679566276795902F9F77D79466
:10086000DD24D7948E2F8695492F462B582F5D294E
:10087000B701CA011F910F91FF90EF90DF9008958B
:10088000FC01DB01408151812281622F6F7770E092
:10089000221F2227221F9381892F880F822B282F26
:1008A00030E0991F9927991F11969C931197211554
:1008B0003105A9F5411551056105710511F482E075
:1008C00037C082E89FEF13969C938E9312979A01FC
:1008D000AB0167E0220F331F441F551F6A95D1F704
:1008E00083E08C930DC0220F331F441F551F1296B7
:1008F0008D919C911397019713969C938E931297C9
:10090000203080E0380780E0480780E4580758F33B
:1009100014962D933D934D935C93179708952F3F15
:10092000310579F4411551056105710519F484E02B
:100930008C93089564FF03C081E08C9312C01C92D5
:1009400010C02F57304013963C932E93129783E09C
:100950008C9387E0440F551F661F771F8A95D1F748
:10096000706414964D935D936D937C9317970895DF
:100970001F93DC01FB019C91923008F447C08081F9
:10098000823008F443C0943051F411961C918430A5
:1009900099F58181682F70E0611B71093FC0843037
:1009A00021F0923031F48230B9F18181882389F1CC
:1009B0002DC011961C9111978230F1F0818118178A
:1009C000D9F412962D913C911397828193818217CD
:1009D000930794F028173907BCF014968D919D91D8
:1009E0000D90BC91A02D2481358146815781281717
:1009F00039074A075B0718F4112341F00AC0821730
:100A00009307A407B50740F4112319F061E070E0E3
:100A100005C06FEF7FEF02C060E070E0CB011F9177
:100A20000895DF93CF93CDB7DEB7E0E4F0E086E83A
:100A30008083ABE2B0E0EBE2F0E0808182608C93F7
:100A4000E9E2F0E08CE08083E0E4F0E01082AAE2EA
:100A5000B0E0EAE2F0E0808188608C93AAE2B0E046
:100A6000EAE2F0E0808180618C93ABE2B0E0EBE2FF
:100A7000F0E080818E7F8C93CF91DF910895DF939A
:100A8000CF9300D0CDB7DEB78A831982EBE2F0E0D6
:100A90008081829586958770882F90E08170907014
:100AA0000097A1F3ECE2F0E08A818083EBE2F0E0D2
:100AB00080818295869586958370882F90E08170DD
:100AC0009070882349F0ABE2B0E0EBE2F0E0808187
:100AD00080648C9381E0898389810F900F90CF91FE
:100AE000DF910895DF93CF9300D00F92CDB7DEB79B
:100AF0009B838A8319828A819B81009771F0EBE244
:100B0000F0E080818823DCF7ECE2F0E08081EA818C
:100B1000FB81808381E0898302C082E089838981AF
:100B20000F900F900F90CF91DF910895DF93CF93A7
:100B300000D00F92CDB7DEB79B838A8319828A815A
:100B40009B81009701F117C0EBE2F0E08081829574
:100B500086958770882F90E0817090700097A1F340
:100B6000ACE2B0E0EA81FB8180818C938A819B8139
:100B700001969B838A83EA81FB818081882321F708
:100B800081E0898302C082E0898389810F900F9080
:100B90000F90CF91DF910895DF93CF9300D000D0D5
:100BA00000D0CDB7DEB79E838D831C828D819E8160
:100BB000009791F11B821A82EBE2F0E0808188239A
:100BC000DCF7ECE2F0E080818983EBE2F0E0808109
:100BD0008823DCF7ECE2F0E080818B839B818981C4
:100BE000981761F48A81282F30E08D819E81FC0165
:100BF000E20FF31F108281E08C8310C08A81282FBE
:100C000030E08D819E81FC01E20FF31F8B81808398
:100C10008A818F5F8A83D9CF82E08C838C812696EC
:100C20000FB6F894DEBF0FBECDBFCF91DF91089510
:100C3000DF93CF9300D000D00F92CDB7DEB78A8379
:100C40006B8319828A818430A8F58A81282F30E04D
:100C50003D832C838C819D8181309105D1F02C8145
:100C60003D81223031052CF48C819D81009761F00B
:100C70001EC02C813D812230310581F08C819D8107
:100C80008330910581F013C0EAE3F0E08B8180832B
:100C90000EC0E7E3F0E08B81808309C0E4E3F0E07D
:100CA0008B81808304C0E1E3F0E08B81808381E06D
:100CB000898302C083E0898389810F900F900F9010
:100CC0000F900F90CF91DF910895DF93CF9300D0D5
:100CD00000D00F92CDB7DEB78A836B8319828A81E9
:100CE0008430A8F58A81282F30E03D832C838C81C5
:100CF0009D8181309105D1F02C813D8122303105DB
:100D00002CF48C819D81009761F01EC02C813D8167
:100D10002230310581F08C819D818330910581F0F5
:100D200013C0EBE3F0E08B8180830EC0E8E3F0E0DA
:100D30008B81808309C0E5E3F0E08B81808304C070
:100D4000E2E3F0E08B81808381E0898302C083E06D
:100D5000898389810F900F900F900F900F90CF9102
:100D6000DF910895DF93CF9300D000D0CDB7DEB7E9
:100D70008A8319828A81843008F041C08A81282FB1
:100D800030E03C832B838B819C8181309105E9F09D
:100D90002B813C81223031052CF48B819C81009782
:100DA00061F02AC02B813C8122303105B1F08B816A
:100DB0009C8183309105C9F01FC0ABE3B0E0EBE349
:100DC000F0E0808180958C9317C0A8E3B0E0E8E361
:100DD000F0E0808180958C930FC0A5E3B0E0E5E35F
:100DE000F0E0808180958C9307C0A2E3B0E0E2E35D
:100DF000F0E0808180958C9381E0898302C083E05C
:100E0000898389810F900F900F900F90CF91DF9180
:100E10000895DF93CF9300D000D000D0CDB7DEB7D8
:100E20008A837C836B8319828B819C81009709F470
:100E300043C08A818430E8F58A81282F30E03E83E0
:100E40002D838D819E8181309105E1F02D813E8140
:100E5000223031052CF48D819E81009761F026C0EF
:100E60002D813E8122303105A1F08D819E8183301C
:100E70009105B1F01BC0E9E3F0E08081EB81FC81DA
:100E8000808314C0E6E3F0E08081EB81FC81808305
:100E90000DC0E3E3F0E08081EB81FC81808306C03C
:100EA000E0E3F0E08081EB81FC81808381E0898355
:100EB00005C083E0898302C082E089838981269608
:100EC0000FB6F894DEBF0FBECDBFCF91DF9108956E
:100ED000DF93CF9300D000D000D0CDB7DEB78A83A8
:100EE0006B834C8319828A81843008F0DCC08B814B
:100EF000883008F0D8C08C81823008F0D4C08A8154
:100F0000282F30E03E832D838D819E818130910595
:100F100009F443C02D813E81223031052CF48D81AE
:100F20009E81009771F0BCC02D813E812230310539
:100F300009F45FC08D819E818330910509F485C0DD
:100F4000AFC08C818823A9F4AAE3B0E0EAE3F0E023
:100F50008081482F8B81282F30E081E090E0022EA5
:100F600002C0880F991F0A94E2F7809584238C931E
:100F700097C0AAE3B0E0EAE3F0E08081482F8B81DC
:100F8000282F30E081E090E0022E02C0880F991FE8
:100F90000A94E2F7842B8C9383C08C818823A9F474
:100FA000A7E3B0E0E7E3F0E08081482F8B81282FB2
:100FB00030E081E090E0022E02C0880F991F0A9471
:100FC000E2F7809584238C936BC0A7E3B0E0E7E35E
:100FD000F0E08081482F8B81282F30E081E090E085
:100FE000022E02C0880F991F0A94E2F7842B8C937B
:100FF00057C08C818823A9F4A4E3B0E0E4E3F0E0D7
:101000008081482F8B81282F30E081E090E0022EF4
:1010100002C0880F991F0A94E2F7809584238C936D
:101020003FC0A4E3B0E0E4E3F0E08081482F8B818F
:10103000282F30E081E090E0022E02C0880F991F37
:101040000A94E2F7842B8C932BC08C818823A9F41B
:10105000A1E3B0E0E1E3F0E08081482F8B81282F0D
:1010600030E081E090E0022E02C0880F991F0A94C0
:10107000E2F7809584238C9313C0A1E3B0E0E1E311
:10108000F0E08081482F8B81282F30E081E090E0D4
:10109000022E02C0880F991F0A94E2F7842B8C93CA
:1010A00081E0898302C083E08983898126960FB617
:1010B000F894DEBF0FBECDBFCF91DF910895DF93CF
:1010C000CF9300D000D000D0CDB7DEB78A836B833A
:1010D0004C8319828A81843008F0DCC08B8188308F
:1010E00008F0D8C08C81823008F0D4C08A81282FC3
:1010F00030E03E832D838D819E818130910509F4FE
:1011000043C02D813E81223031052CF48D819E819A
:10111000009771F0BCC02D813E812230310509F469
:101120005FC08D819E818330910509F485C0AFC079
:101130008C818823A9F4ABE3B0E0EBE3F0E080819D
:10114000482F8B81282F30E081E090E0022E02C0F2
:10115000880F991F0A94E2F7809584238C9397C097
:10116000ABE3B0E0EBE3F0E08081482F8B81282FE8
:1011700030E081E090E0022E02C0880F991F0A94AF
:10118000E2F7842B8C9383C08C818823A9F4A8E395
:10119000B0E0E8E3F0E08081482F8B81282F30E039
:1011A00081E090E0022E02C0880F991F0A94E2F7B6
:1011B000809584238C936BC0A8E3B0E0E8E3F0E073
:1011C0008081482F8B81282F30E081E090E0022E33
:1011D00002C0880F991F0A94E2F7842B8C9357C0A2
:1011E0008C818823A9F4A5E3B0E0E5E3F0E08081F9
:1011F000482F8B81282F30E081E090E0022E02C042
:10120000880F991F0A94E2F7809584238C933FC03E
:10121000A5E3B0E0E5E3F0E08081482F8B81282F43
:1012200030E081E090E0022E02C0880F991F0A94FE
:10123000E2F7842B8C932BC08C818823A9F4A2E342
:10124000B0E0E2E3F0E08081482F8B81282F30E08E
:1012500081E090E0022E02C0880F991F0A94E2F705
:10126000809584238C9313C0A2E3B0E0E2E3F0E026
:101270008081482F8B81282F30E081E090E0022E82
:1012800002C0880F991F0A94E2F7842B8C9381E0A7
:10129000898302C083E08983898126960FB6F894FA
:1012A000DEBF0FBECDBFCF91DF910895DF93CF9307
:1012B00000D000D00F92CDB7DEB78A836B8319823E
:1012C0008A81843008F075C08B81883008F071C045
:1012D0008A81282F30E03D832C838C819D81813051
:1012E000910549F12C813D81223031052CF48C810E
:1012F0009D81009761F05AC02C813D8122303105DB
:1013000071F18C819D8183309105E9F14FC0ABE390
:10131000B0E0EBE3F0E08081482F8B81282F30E0B4
:1013200081E090E0022E02C0880F991F0A94E2F734
:1013300084278C933BC0A8E3B0E0E8E3F0E0808131
:10134000482F8B81282F30E081E090E0022E02C0F0
:10135000880F991F0A94E2F784278C9327C0A5E38E
:10136000B0E0E5E3F0E08081482F8B81282F30E06A
:1013700081E090E0022E02C0880F991F0A94E2F7E4
:1013800084278C9313C0A2E3B0E0E2E3F0E0808115
:10139000482F8B81282F30E081E090E0022E02C0A0
:1013A000880F991F0A94E2F784278C9381E0898340
:1013B00002C083E0898389810F900F900F900F9076
:1013C0000F90CF91DF910895DF93CF93CDB7DEB724
:1013D00027970FB6F894DEBF0FBECDBF8A836B830D
:1013E0005D834C8319828C819D81009709F47EC0B6
:1013F0008A81843008F077C08B81883008F073C010
:101400008A81282F30E03F832E834E815F814130D7
:10141000510559F18E819F818230910534F42E81DE
:101420003F812115310569F05BC04E815F814230FB
:10143000510579F18E819F818330910509F43DC07A
:101440004FC0E9E3F0E08081282F30E08B81882FC6
:1014500090E0A90102C0559547958A95E2F7CA0127
:101460008170EC81FD8180833BC0E6E3F0E0808108
:10147000282F30E08B81882F90E0A90102C055957C
:1014800047958A95E2F7CA018170EC81FD818083DE
:1014900027C0E3E3F0E08081282F30E08B81882FA4
:1014A00090E0A90102C0559547958A95E2F7CA01D7
:1014B0008170EC81FD81808313C0E0E3F0E08081E6
:1014C000282F30E08B81882F90E0A90102C055952C
:1014D00047958A95E2F7CA018170EC81FD8180838E
:1014E00081E0898305C083E0898302C082E089832B
:1014F000898127960FB6F894DEBF0FBECDBFCF917E
:10150000DF9108950F931F93DF93CF93CDB7DEB78D
:101510002F970FB6F894DEBF0FBECDBF9F838E838B
:10152000798768875B874A873D872C871F870E8767
:101530001D821C821B821A828AE0898305C08E81EB
:101540009F8101969F838E83EE81FF8180818C3203
:10155000B1F78E819F8101969F838E838C819D81BF
:101560009C01220F331FC901880F991F880F991FF3
:10157000820F931F9D838C83EE81FF818081282FB2
:1015800030E08C819D81820F931FC0979D838C8357
:101590008E819F8101969F838E83EE81FF81808162
:1015A0008E32E1F68E819F8101969F838E83EE813C
:1015B000FF818081882F90E0C097AC018981282F1E
:1015C00030E0CA01B9010E941D0DCB019C018C8144
:1015D0009D81820F931F9D838C838981882F90E04A
:1015E0009C01220F331FC901880F991F880F991F73
:1015F000820F931F89838E819F8101969F838E83A3
:10160000EE81FF8180818C3291F68E819F810196DF
:101610009F838E83EC85FD85A081B181EE81FF8162
:1016200080818C938E819F8101969F838E838E8192
:101630009F8101969F838E838A819B819C01220FCB
:10164000331FC901880F991F880F991F820F931F9D
:101650009B838A83EE81FF818081282F30E08A81FD
:101660009B81820F931FC0979B838A838E819F816A
:1016700001969F838E83EE81FF8180818E32E1F619
:101680008E819F8101969F838E838AE08983EE817C
:10169000FF818081882F90E0C097AC018981282F3D
:1016A00030E0CA01B9010E941D0DCB019C018A8165
:1016B0009B81820F931F9B838A838981882F90E06F
:1016C0009C01220F331FC901880F991F880F991F92
:1016D000820F931F89838E819F8101969F838E83C2
:1016E000EE81FF8180818C3291F68E819F810196FF
:1016F0009F838E83EE85FF85A081B181EE81FF817E
:1017000080818C93EA85FB85008111818A819B8190
:10171000CC01A0E0B0E0BC01CD010E94A302DC013D
:10172000CB01F80180839183A283B383E885F98597
:10173000008111818C819D81CC01A0E0B0E0BC01D1
:10174000CD010E94A302DC01CB01F80180839183CB
:10175000A283B3832F960FB6F894DEBF0FBECDBF22
:10176000CF91DF911F910F910895DF93CF9300D018
:101770000F92CDB7DEB7198280916801282F30E033
:101780003B832A838A819B81009731F02A813B81A8
:101790002130310541F129C08091690190916A01A0
:1017A000692F41E00E9468078091690190916A0168
:1017B000692F41E00E945F0880916B0190916C015C
:1017C000692F41E00E94680780916B0190916C0144
:1017D000692F40E00E945F081092B4010E94110539
:1017E00081E0898302C081E0898389810F900F9015
:1017F0000F90CF91DF9108950F931F93DF93CF93B5
:10180000CDB7DEB72B970FB6F894DEBF0FBECDBFB6
:101810009D838C837F836E83598748873B872A8784
:101820001A828C819D81009709F48AC08E819F81E4
:10183000009709F485C088859985009709F480C0D0
:101840008A859B85009709F47BC01B821982CE0193
:1018500003960E9472058B81843239F0CE01039683
:101860000E9472058B818432C9F7CE0103960E94D3
:101870007205CE0103960E947205CE0103960E9466
:1018800072058B81873409F03FC0CE0103960E9418
:1018900072058B818734C1F5CE0103960E947205D3
:1018A0008B81813489F5CE0103960E9472058B816C
:1018B0008C3251F5CE0103960E9472058981882FE2
:1018C00090E02B81FC01E359FE4F208389818F5FDB
:1018D00089838B818A3071F7809179018C3231F064
:1018E0008091B40181608093B4010EC08981882FFA
:1018F00090E0FC01E359FE4F88E5808389818150A7
:1019000089838981882391F78091B401817088232C
:1019100009F4A1CF8DE691E09E012C5F3F4FAE010F
:101920004A5F5F4FFE013896DE011A96B9019F01AA
:101930008D010E94820A1092B40181E08A8302C064
:1019400082E08A838A812B960FB6F894DEBF0FBEA1
:10195000CDBFCF91DF911F910F9108950F931F93EA
:10196000DF93CF93CDB7DEB70E94B50B8DE40E9415
:101970003F0581E60E943F0589E60E943F058EE60D
:101980000E943F058EEB91E0482F89EB91E0582FA4
:1019900085EB91E02AEB31E0B901252F0E94FC0B89
:1019A00080E20E943F0580E20E943F0587E70E9497
:1019B0003F0588E60E943F0589E60E943F058CE6C8
:1019C0000E943F0585E60E943F0588E20E943F0590
:1019D00081E30E943F0589E20E943F05E3E3F0E0D6
:1019E0008091BE018083E6E3F0E08091B9018083BD
:1019F00003E510E08091B5019091B601A091B70187
:101A0000B091B801BC01CD010E944900DC01CB01BD
:101A1000F801808302E510E08091BA019091BB014A
:101A2000A091BC01B091BD01BC01CD010E94490053
:101A3000DC01CB01F8018083FFCFAA1BBB1B51E166
:101A400007C0AA1FBB1FA617B70710F0A61BB70B2E
:101A5000881F991F5A95A9F780959095BC01CD01D3
:101A600008952F923F924F925F926F927F928F9242
:101A70009F92AF92BF92CF92DF92EF92FF920F931D
:101A80001F93CF93DF93CDB7DEB7CA1BDB0B0FB627
:101A9000F894DEBF0FBECDBF09942A8839884888E4
:101AA0005F846E847D848C849B84AA84B984C8847A
:101AB000DF80EE80FD800C811B81AA81B981CE0F71
:101AC000D11D0FB6F894DEBF0FBECDBFED01089556
:041AD000F894FFCFB8
:101AD40000000000000000000001020203030303F1
:101AE40004040404040404040505050505050505AA
:101AF400050505050505050506060606060606068A
:101B04000606060606060606060606060606060671
:101B14000606060606060606070707070707070759
:101B24000707070707070707070707070707070741
:101B34000707070707070707070707070707070731
:101B44000707070707070707070707070707070721
:101B54000707070707070707080808080808080809
:101B640008080808080808080808080808080808F1
:101B740008080808080808080808080808080808E1
:101B840008080808080808080808080808080808D1
:101B940008080808080808080808080808080808C1
:101BA40008080808080808080808080808080808B1
:101BB40008080808080808080808080808080808A1
:101BC4000808080808080808080808080808080891
:101BD4000808080808080808000000000158000068
:101BE40000000000000000000000000000000000F1
:101BF40000000000000000000000000000000000E1
:101C040000000000000000000000000000000000D0
:101C140000000000000000000000000000000000C0
:041C240000000000BC
:00000001FF
