:100000000C942A000C9447000C9447000C94470071
:100010000C9447000C9447000C9447000C94470044
:100020000C9447000C9447000C9447000C94470034
:100030000C9447000C9447000C9447000C94470024
:100040000C9447000C9447000C9447000C94470014
:100050000C94470011241FBECFE5D8E0DEBFCDBF12
:1000600010E0A0E6B0E0E8ECFDE002C005900D92E3
:10007000A839B107D9F710E0A8E9B0E001C01D9296
:10008000A33AB107E1F70E94A3060C94E2060C9490
:100090000000DF93CF93CDB7DEB7E0E4F0E086E871
:1000A0008083ABE2B0E0EBE2F0E0808182608C9391
:1000B000E9E2F0E08CE08083E0E4F0E01082AAE284
:1000C000B0E0EAE2F0E0808188608C93AAE2B0E0E0
:1000D000EAE2F0E0808180618C93ABE2B0E0EBE299
:1000E000F0E080818E7F8C93CF91DF910895DF9334
:1000F000CF9300D0CDB7DEB78A831982EBE2F0E070
:100100008081829586958770882F90E081709070AD
:100110000097A1F3ECE2F0E08A818083EBE2F0E06B
:1001200080818295869586958370882F90E0817076
:100130009070882349F0ABE2B0E0EBE2F0E0808120
:1001400080648C9381E0898389810F900F90CF9197
:10015000DF910895DF93CF9300D00F92CDB7DEB734
:100160009B838A8319828A819B81009771F0EBE2DD
:10017000F0E080818823DCF7ECE2F0E08081EA8126
:10018000FB81808381E0898302C082E08983898149
:100190000F900F900F90CF91DF910895DF93CF9341
:1001A00000D00F92CDB7DEB79B838A8319828A81F4
:1001B0009B81009701F117C0EBE2F0E0808182950E
:1001C00086958770882F90E0817090700097A1F3DA
:1001D000ACE2B0E0EA81FB8180818C938A819B81D3
:1001E00001969B838A83EA81FB818081882321F7A2
:1001F00081E0898302C082E0898389810F900F901A
:100200000F90CF91DF910895DF93CF9300D000D06E
:1002100000D0CDB7DEB79E838D831C828D819E81F9
:10022000009791F11B821A82EBE2F0E08081882333
:10023000DCF7ECE2F0E080818983EBE2F0E08081A2
:100240008823DCF7ECE2F0E080818B839B8189815D
:10025000981761F48A81282F30E08D819E81FC01FE
:10026000E20FF31F108281E08C8310C08A81282F57
:1002700030E08D819E81FC01E20FF31F8B81808332
:100280008A818F5F8A83D9CF82E08C838C81269686
:100290000FB6F894DEBF0FBECDBFCF91DF910895AA
:1002A000DF93CF9300D000D00F92CDB7DEB78A8313
:1002B0006B8319828A818430A8F58A81282F30E0E7
:1002C0003D832C838C819D8181309105D1F02C81DF
:1002D0003D81223031052CF48C819D81009761F0A5
:1002E0001EC02C813D812230310581F08C819D81A1
:1002F0008330910581F013C0EAE3F0E08B818083C5
:100300000EC0E7E3F0E08B81808309C0E4E3F0E016
:100310008B81808304C0E1E3F0E08B81808381E006
:10032000898302C083E0898389810F900F900F90A9
:100330000F900F90CF91DF910895DF93CF9300D06E
:1003400000D00F92CDB7DEB78A836B8319828A8182
:100350008430A8F58A81282F30E03D832C838C815E
:100360009D8181309105D1F02C813D812230310574
:100370002CF48C819D81009761F01EC02C813D8101
:100380002230310581F08C819D818330910581F08F
:1003900013C0EBE3F0E08B8180830EC0E8E3F0E074
:1003A0008B81808309C0E5E3F0E08B81808304C00A
:1003B000E2E3F0E08B81808381E0898302C083E007
:1003C000898389810F900F900F900F900F90CF919C
:1003D000DF910895DF93CF9300D000D0CDB7DEB783
:1003E0008A8319828A81843008F041C08A81282F4B
:1003F00030E03C832B838B819C8181309105E9F037
:100400002B813C81223031052CF48B819C8100971B
:1004100061F02AC02B813C8122303105B1F08B8103
:100420009C8183309105C9F01FC0ABE3B0E0EBE3E2
:10043000F0E0808180958C9317C0A8E3B0E0E8E3FA
:10044000F0E0808180958C930FC0A5E3B0E0E5E3F8
:10045000F0E0808180958C9307C0A2E3B0E0E2E3F6
:10046000F0E0808180958C9381E0898302C083E0F5
:10047000898389810F900F900F900F90CF91DF911A
:100480000895DF93CF9300D000D000D0CDB7DEB772
:100490008A837C836B8319828B819C81009709F40A
:1004A00043C08A818430E8F58A81282F30E03E837A
:1004B0002D838D819E8181309105E1F02D813E81DA
:1004C000223031052CF48D819E81009761F026C089
:1004D0002D813E8122303105A1F08D819E818330B6
:1004E0009105B1F01BC0E9E3F0E08081EB81FC8174
:1004F000808314C0E6E3F0E08081EB81FC8180839F
:100500000DC0E3E3F0E08081EB81FC81808306C0D5
:10051000E0E3F0E08081EB81FC81808381E08983EE
:1005200005C083E0898302C082E0898389812696A1
:100530000FB6F894DEBF0FBECDBFCF91DF91089507
:10054000DF93CF9300D000D000D0CDB7DEB78A8341
:100550006B834C8319828A81843008F0DCC08B81E4
:10056000883008F0D8C08C81823008F0D4C08A81ED
:10057000282F30E03E832D838D819E81813091052F
:1005800009F443C02D813E81223031052CF48D8148
:100590009E81009771F0BCC02D813E8122303105D3
:1005A00009F45FC08D819E818330910509F485C077
:1005B000AFC08C818823A9F4AAE3B0E0EAE3F0E0BD
:1005C0008081482F8B81282F30E081E090E0022E3F
:1005D00002C0880F991F0A94E2F7809584238C93B8
:1005E00097C0AAE3B0E0EAE3F0E08081482F8B8176
:1005F000282F30E081E090E0022E02C0880F991F82
:100600000A94E2F7842B8C9383C08C818823A9F40D
:10061000A7E3B0E0E7E3F0E08081482F8B81282F4B
:1006200030E081E090E0022E02C0880F991F0A940A
:10063000E2F7809584238C936BC0A7E3B0E0E7E3F7
:10064000F0E08081482F8B81282F30E081E090E01E
:10065000022E02C0880F991F0A94E2F7842B8C9314
:1006600057C08C818823A9F4A4E3B0E0E4E3F0E070
:100670008081482F8B81282F30E081E090E0022E8E
:1006800002C0880F991F0A94E2F7809584238C9307
:100690003FC0A4E3B0E0E4E3F0E08081482F8B8129
:1006A000282F30E081E090E0022E02C0880F991FD1
:1006B0000A94E2F7842B8C932BC08C818823A9F4B5
:1006C000A1E3B0E0E1E3F0E08081482F8B81282FA7
:1006D00030E081E090E0022E02C0880F991F0A945A
:1006E000E2F7809584238C9313C0A1E3B0E0E1E3AB
:1006F000F0E08081482F8B81282F30E081E090E06E
:10070000022E02C0880F991F0A94E2F7842B8C9363
:1007100081E0898302C083E08983898126960FB6B0
:10072000F894DEBF0FBECDBFCF91DF910895DF9368
:10073000CF9300D000D000D0CDB7DEB78A836B83D3
:100740004C8319828A81843008F0DCC08B81883028
:1007500008F0D8C08C81823008F0D4C08A81282F5C
:1007600030E03E832D838D819E818130910509F497
:1007700043C02D813E81223031052CF48D819E8134
:10078000009771F0BCC02D813E812230310509F403
:100790005FC08D819E818330910509F485C0AFC013
:1007A0008C818823A9F4ABE3B0E0EBE3F0E0808137
:1007B000482F8B81282F30E081E090E0022E02C08C
:1007C000880F991F0A94E2F7809584238C9397C031
:1007D000ABE3B0E0EBE3F0E08081482F8B81282F82
:1007E00030E081E090E0022E02C0880F991F0A9449
:1007F000E2F7842B8C9383C08C818823A9F4A8E32F
:10080000B0E0E8E3F0E08081482F8B81282F30E0D2
:1008100081E090E0022E02C0880F991F0A94E2F74F
:10082000809584238C936BC0A8E3B0E0E8E3F0E00C
:100830008081482F8B81282F30E081E090E0022ECC
:1008400002C0880F991F0A94E2F7842B8C9357C03B
:100850008C818823A9F4A5E3B0E0E5E3F0E0808192
:10086000482F8B81282F30E081E090E0022E02C0DB
:10087000880F991F0A94E2F7809584238C933FC0D8
:10088000A5E3B0E0E5E3F0E08081482F8B81282FDD
:1008900030E081E090E0022E02C0880F991F0A9498
:1008A000E2F7842B8C932BC08C818823A9F4A2E3DC
:1008B000B0E0E2E3F0E08081482F8B81282F30E028
:1008C00081E090E0022E02C0880F991F0A94E2F79F
:1008D000809584238C9313C0A2E3B0E0E2E3F0E0C0
:1008E0008081482F8B81282F30E081E090E0022E1C
:1008F00002C0880F991F0A94E2F7842B8C9381E041
:10090000898302C083E08983898126960FB6F89493
:10091000DEBF0FBECDBFCF91DF910895DF93CF93A0
:1009200000D000D00F92CDB7DEB78A836B831982D7
:100930008A81843008F075C08B81883008F071C0DE
:100940008A81282F30E03D832C838C819D818130EA
:10095000910549F12C813D81223031052CF48C81A7
:100960009D81009761F05AC02C813D812230310574
:1009700071F18C819D8183309105E9F14FC0ABE32A
:10098000B0E0EBE3F0E08081482F8B81282F30E04E
:1009900081E090E0022E02C0880F991F0A94E2F7CE
:1009A00084278C933BC0A8E3B0E0E8E3F0E08081CB
:1009B000482F8B81282F30E081E090E0022E02C08A
:1009C000880F991F0A94E2F784278C9327C0A5E328
:1009D000B0E0E5E3F0E08081482F8B81282F30E004
:1009E00081E090E0022E02C0880F991F0A94E2F77E
:1009F00084278C9313C0A2E3B0E0E2E3F0E08081AF
:100A0000482F8B81282F30E081E090E0022E02C039
:100A1000880F991F0A94E2F784278C9381E08983D9
:100A200002C083E0898389810F900F900F900F900F
:100A30000F90CF91DF910895DF93CF93CDB7DEB7BD
:100A400027970FB6F894DEBF0FBECDBF8A836B83A6
:100A50005D834C8319828C819D81009709F47EC04F
:100A60008A81843008F077C08B81883008F073C0A9
:100A70008A81282F30E03F832E834E815F81413071
:100A8000510559F18E819F818230910534F42E8178
:100A90003F812115310569F05BC04E815F81423095
:100AA000510579F18E819F818330910509F43DC014
:100AB0004FC0E9E3F0E08081282F30E08B81882F60
:100AC00090E0A90102C0559547958A95E2F7CA01C1
:100AD0008170EC81FD8180833BC0E6E3F0E08081A2
:100AE000282F30E08B81882F90E0A90102C0559516
:100AF00047958A95E2F7CA018170EC81FD81808378
:100B000027C0E3E3F0E08081282F30E08B81882F3D
:100B100090E0A90102C0559547958A95E2F7CA0170
:100B20008170EC81FD81808313C0E0E3F0E080817F
:100B3000282F30E08B81882F90E0A90102C05595C5
:100B400047958A95E2F7CA018170EC81FD81808327
:100B500081E0898305C083E0898302C082E08983C4
:100B6000898127960FB6F894DEBF0FBECDBFCF9117
:100B7000DF910895DF93CF93CDB7DEB7CF91DF91AB
:100B80000895DF93CF9300D00F92CDB7DEB71982CF
:100B900080916000282F30E03B832A838A819B81EB
:100BA000009731F02A813B812130310541F129C084
:100BB0008091610090916200692F41E00E94A00243
:100BC0008091610090916200692F41E00E9497033B
:100BD0008091630090916400692F41E00E94A0021F
:100BE0008091630090916400692F40E00E94970318
:100BF000109298000E94490081E0898302C081E040
:100C0000898389810F900F900F90CF91DF91089584
:100C1000DF93CF93CDB7DEB729970FB6F894DEBF39
:100C20000FBECDBF9D838C837F836E8348872987CA
:100C30001A828C819D81009709F479C08E819F81F1
:100C4000009709F474C08885882F90E0009709F414
:100C50006EC08985882F90E0009709F468C01B82D8
:100C60001982CE0103960E94AA008B81843239F04A
:100C7000CE0103960E94AA008B818432C9F7CE016F
:100C800003960E94AA00CE0103960E94AA00CE01FC
:100C900003960E94AA008B81873409F03FC0CE01E1
:100CA00003960E94AA008B818734C1F5CE0103967A
:100CB0000E94AA008B81813489F5CE0103960E949F
:100CC000AA008B818C3251F5CE0103960E94AA00B6
:100CD0008981882F90E02B81FC01EB59FF4F208305
:100CE00089818F5F89838B818A3071F78091710050
:100CF0008C3231F0809198008160809398000EC012
:100D00008981882F90E0FC01EB59FF4F88E58083B3
:100D10008981815089838981882391F78091980006
:100D20008170882309F4A1CF81E08A8302C082E028
:100D30008A838A8129960FB6F894DEBF0FBECDBF95
:100D4000CF91DF910895DF93CF93CDB7DEB70E94A7
:100D5000C1058DE40E94770081E60E94770089E654
:100D60000E9477008EE60E94770082EA90E0482F8A
:100D70008DE990E0582F89E990E02EE930E0B90143
:100D8000252F0E94080680E20E94770080E20E94E0
:100D9000770087E70E94770088E60E94770089E65F
:100DA0000E9477008CE60E94770085E60E9477001B
:100DB00088E20E94770081E30E94770089E20E9426
:080DC0007700FFCFF894FFCF8C
:100DC80000000000015800000000000000000000C2
:100DD800000000000000000000000000000000000B
:100DE80000000000000000000000000000000000FB
:080DF8000000000000000000F3
:00000001FF
