:100000000C942A000C9447000C9447000C94470071
:100010000C9447000C9447000C9447000C94470044
:100020000C9447000C9447000C9447000C94470034
:100030000C9447000C9447000C9447000C94470024
:100040000C9447000C9447000C9447000C94470014
:100050000C94470011241FBECFE5D8E0DEBFCDBF12
:1000600011E0A0E6B0E0EEE0F5E102C005900D92EF
:10007000AC3AB107D9F711E0ACEAB1E001C01D928A
:10008000A73BB107E1F70E94FB090C94850A0C9489
:100090000000A8E0B0E0EFE4F0E00C94560A7B0129
:1000A0008C01611571058105910519F482E0898340
:1000B00060C083E089838EE1C82ED12CDC82CB82A4
:1000C000ED82FE820F831887C801B7010E94C2002B
:1000D000FC013197F7FF3BC0222733272E1B3F0B34
:1000E00057016801022E04C0D694C794B794A79410
:1000F0000A94D2F740E050E060E070E081E090E0E8
:10010000A0E0B0E004C0880F991FAA1FBB1F2A956A
:10011000D2F70197A109B1098E219F21A023B12314
:100120000097A105B10521F041E050E060E070E0EA
:100130004A295B296C297D294D835E836F837887EB
:100140008EE190E08E1B9F0B9C838B8312C03097B7
:1001500081F00E2E04C0EE0CFF1C001F111F0A942C
:10016000D2F7ED82FE820F831887CE1ADF0ADC8277
:10017000CB821A82CE0101960E9411012896EAE0F4
:100180000C94720AEF92FF920F931F937B018C01E4
:1001900080E0E81680E0F80681E0080780E01807B4
:1001A00088F48FEFE816F1040105110531F028F00D
:1001B00088E090E0A0E0B0E017C080E090E0A0E030
:1001C000B0E012C080E0E81680E0F80680E00807A2
:1001D00081E0180728F088E190E0A0E0B0E004C0DA
:1001E00080E190E0A0E0B0E020E230E040E050E0CC
:1001F000281B390B4A0B5B0B04C016950795F79427
:10020000E7948A95D2F7F701E05AFF4F8081281BC7
:10021000310941095109C9011F910F91FF90EF90D8
:100220000895DF92EF92FF920F931F93FC01E480F9
:10023000F58006811781D1808081823048F480E08A
:1002400090E0A0E1B0E0E82AF92A0A2B1B2BA5C018
:10025000843009F49FC0823021F4EE24FF2487010A
:1002600005C0E114F1040105110519F4E0E0F0E026
:1002700096C0628173819FEF623879070CF05BC092
:1002800022E83FEF261B370B2A3131052CF020E006
:1002900030E040E050E02AC0B801A701022E04C0BF
:1002A00076956795579547950A94D2F781E090E047
:1002B000A0E0B0E004C0880F991FAA1FBB1F2A95B9
:1002C000D2F70197A109B1098E219F21A023B12363
:1002D0000097A105B10521F081E090E0A0E0B0E039
:1002E0009A01AB01282B392B4A2B5B2BDA01C90170
:1002F0008F779070A070B07080349105A105B10522
:1003000039F427FF09C0205C3F4F4F4F5F4F04C0B7
:10031000215C3F4F4F4F5F4FE0E0F0E02030A0E026
:100320003A07A0E04A07A0E45A0710F0E1E0F0E045
:1003300079018A0127C06038710564F5FB01E15835
:10034000FF4FD801C7018F779070A070B0708034D4
:100350009105A105B10539F4E7FE0DC080E490E0F8
:10036000A0E0B0E004C08FE390E0A0E0B0E0E80ED1
:10037000F91E0A1F1B1F17FF05C016950795F79456
:10038000E794319687E016950795F794E7948A9558
:10039000D1F705C0EE24FF248701EFEFF0E06E2FC8
:1003A000679566276795902F9F77D794DD24D7941C
:1003B0008E2F8695492F462B582F5D29B701CA01EC
:1003C0001F910F91FF90EF90DF900895DF93CF93EF
:1003D000CDB7DEB7E0E4F0E086E88083ABE2B0E0E2
:1003E000EBE2F0E0808182608C93E9E2F0E08CE067
:1003F0008083E0E4F0E01082AAE2B0E0EAE2F0E01C
:10040000808188608C93AAE2B0E0EAE2F0E080812B
:1004100080618C93ABE2B0E0EBE2F0E080818E7F14
:100420008C93CF91DF910895DF93CF9300D0CDB718
:10043000DEB78A831982EBE2F0E0808182958695AF
:100440008770882F90E0817090700097A1F3ECE2A4
:10045000F0E08A818083EBE2F0E0808182958695EE
:1004600086958370882F90E081709070882349F082
:10047000ABE2B0E0EBE2F0E0808180648C9381E05D
:10048000898389810F900F90CF91DF910895DF9339
:10049000CF9300D00F92CDB7DEB79B838A831982AA
:1004A0008A819B81009771F0EBE2F0E080818823E4
:1004B000DCF7ECE2F0E08081EA81FB81808381E07F
:1004C000898302C082E0898389810F900F900F9009
:1004D000CF91DF910895DF93CF9300D00F92CDB7E6
:1004E000DEB79B838A8319828A819B81009701F101
:1004F00017C0EBE2F0E08081829586958770882FA7
:1005000090E0817090700097A1F3ACE2B0E0EA81D6
:10051000FB8180818C938A819B8101969B838A8356
:10052000EA81FB818081882321F781E0898302C0F1
:1005300082E0898389810F900F900F90CF91DF9196
:100540000895DF93CF9300D000D000D0CDB7DEB7B1
:100550009E838D831C828D819E81009791F11B82E9
:100560001A82EBE2F0E080818823DCF7ECE2F0E035
:1005700080818983EBE2F0E080818823DCF7ECE284
:10058000F0E080818B839B818981981761F48A8157
:10059000282F30E08D819E81FC01E20FF31F108235
:1005A00081E08C8310C08A81282F30E08D819E816C
:1005B000FC01E20FF31F8B8180838A818F5F8A8326
:1005C000D9CF82E08C838C8126960FB6F894DEBF5B
:1005D0000FBECDBFCF91DF910895DF93CF9300D0B1
:1005E00000D00F92CDB7DEB78A836B8319828A81E0
:1005F0008430A8F58A81282F30E03D832C838C81BC
:100600009D8181309105D1F02C813D8122303105D1
:100610002CF48C819D81009761F01EC02C813D815E
:100620002230310581F08C819D818330910581F0EC
:1006300013C0EAE3F0E08B8180830EC0E7E3F0E0D3
:100640008B81808309C0E4E3F0E08B81808304C068
:10065000E1E3F0E08B81808381E0898302C083E065
:10066000898389810F900F900F900F900F90CF91F9
:10067000DF910895DF93CF9300D000D00F92CDB7D4
:10068000DEB78A836B8319828A818430A8F58A81D8
:10069000282F30E03D832C838C819D818130910512
:1006A000D1F02C813D81223031052CF48C819D814B
:1006B000009761F01EC02C813D812230310581F010
:1006C0008C819D818330910581F013C0EBE3F0E0D4
:1006D0008B8180830EC0E8E3F0E08B81808309C0CA
:1006E000E5E3F0E08B81808304C0E2E3F0E08B81FE
:1006F000808381E0898302C083E0898389810F90B0
:100700000F900F900F900F90CF91DF910895DF938E
:10071000CF9300D000D0CDB7DEB78A8319828A810B
:10072000843008F041C08A81282F30E03C832B833D
:100730008B819C8181309105E9F02B813C812230B5
:1007400031052CF48B819C81009761F02AC02B81AC
:100750003C8122303105B1F08B819C818330910541
:10076000C9F01FC0ABE3B0E0EBE3F0E0808180951F
:100770008C9317C0A8E3B0E0E8E3F0E080818095B7
:100780008C930FC0A5E3B0E0E5E3F0E080818095B5
:100790008C9307C0A2E3B0E0E2E3F0E080818095B3
:1007A0008C9381E0898302C083E0898389810F90E3
:1007B0000F900F900F90CF91DF910895DF93CF931B
:1007C00000D000D000D0CDB7DEB78A837C836B83A6
:1007D00019828B819C81009709F443C08A818430FF
:1007E000E8F58A81282F30E03E832D838D819E811C
:1007F00081309105E1F02D813E81223031052CF4CC
:100800008D819E81009761F026C02D813E8122302E
:100810003105A1F08D819E8183309105B1F01BC01F
:10082000E9E3F0E08081EB81FC81808314C0E6E3A2
:10083000F0E08081EB81FC8180830DC0E3E3F0E098
:100840008081EB81FC81808306C0E0E3F0E0808161
:10085000EB81FC81808381E0898305C083E089830B
:1008600002C082E08983898126960FB6F894DEBFA4
:100870000FBECDBFCF91DF910895DF93CF9300D00E
:1008800000D000D0CDB7DEB78A836B834C8319824A
:100890008A81843008F0DCC08B81883008F0D8C0B1
:1008A0008C81823008F0D4C08A81282F30E03E83CA
:1008B0002D838D819E818130910509F443C02D8166
:1008C0003E81223031052CF48D819E81009771F09C
:1008D000BCC02D813E812230310509F45FC08D817D
:1008E0009E818330910509F485C0AFC08C81882337
:1008F000A9F4AAE3B0E0EAE3F0E08081482F8B811D
:10090000282F30E081E090E0022E02C0880F991F6E
:100910000A94E2F7809584238C9397C0AAE3B0E011
:10092000EAE3F0E08081482F8B81282F30E081E0DE
:1009300090E0022E02C0880F991F0A94E2F7842BE0
:100940008C9383C08C818823A9F4A7E3B0E0E7E30C
:10095000F0E08081482F8B81282F30E081E090E00B
:10096000022E02C0880F991F0A94E2F78095842313
:100970008C936BC0A7E3B0E0E7E3F0E08081482F01
:100980008B81282F30E081E090E0022E02C0880F9A
:10099000991F0A94E2F7842B8C9357C08C8188238B
:1009A000A9F4A4E3B0E0E4E3F0E08081482F8B8178
:1009B000282F30E081E090E0022E02C0880F991FBE
:1009C0000A94E2F7809584238C933FC0A4E3B0E0BF
:1009D000E4E3F0E08081482F8B81282F30E081E034
:1009E00090E0022E02C0880F991F0A94E2F7842B30
:1009F0008C932BC08C818823A9F4A1E3B0E0E1E3C0
:100A0000F0E08081482F8B81282F30E081E090E05A
:100A1000022E02C0880F991F0A94E2F78095842362
:100A20008C9313C0A1E3B0E0E1E3F0E08081482FB4
:100A30008B81282F30E081E090E0022E02C0880FE9
:100A4000991F0A94E2F7842B8C9381E0898302C07A
:100A500083E08983898126960FB6F894DEBF0FBEA6
:100A6000CDBFCF91DF910895DF93CF9300D000D019
:100A700000D0CDB7DEB78A836B834C8319828A811D
:100A8000843008F0DCC08B81883008F0D8C08C81BD
:100A9000823008F0D4C08A81282F30E03E832D8335
:100AA0008D819E818130910509F443C02D813E8165
:100AB000223031052CF48D819E81009771F0BCC0ED
:100AC0002D813E812230310509F45FC08D819E81E8
:100AD0008330910509F485C0AFC08C818823A9F4C7
:100AE000ABE3B0E0EBE3F0E08081482F8B81282F6F
:100AF00030E081E090E0022E02C0880F991F0A9436
:100B0000E2F7809584238C9397C0ABE3B0E0EBE3EE
:100B1000F0E08081482F8B81282F30E081E090E049
:100B2000022E02C0880F991F0A94E2F7842B8C933F
:100B300083C08C818823A9F4A8E3B0E0E8E3F0E067
:100B40008081482F8B81282F30E081E090E0022EB9
:100B500002C0880F991F0A94E2F7809584238C9332
:100B60006BC0A8E3B0E0E8E3F0E08081482F8B8120
:100B7000282F30E081E090E0022E02C0880F991FFC
:100B80000A94E2F7842B8C9357C08C818823A9F4B4
:100B9000A5E3B0E0E5E3F0E08081482F8B81282FCA
:100BA00030E081E090E0022E02C0880F991F0A9485
:100BB000E2F7809584238C933FC0A5E3B0E0E5E3A2
:100BC000F0E08081482F8B81282F30E081E090E099
:100BD000022E02C0880F991F0A94E2F7842B8C938F
:100BE0002BC08C818823A9F4A2E3B0E0E2E3F0E01B
:100BF0008081482F8B81282F30E081E090E0022E09
:100C000002C0880F991F0A94E2F7809584238C9381
:100C100013C0A2E3B0E0E2E3F0E08081482F8B81D3
:100C2000282F30E081E090E0022E02C0880F991F4B
:100C30000A94E2F7842B8C9381E0898302C083E0DD
:100C40008983898126960FB6F894DEBF0FBECDBF8B
:100C5000CF91DF910895DF93CF9300D000D00F9212
:100C6000CDB7DEB78A836B8319828A81843008F01E
:100C700075C08B81883008F071C08A81282F30E0E0
:100C80003D832C838C819D818130910549F12C819C
:100C90003D81223031052CF48C819D81009761F0DB
:100CA0005AC02C813D812230310571F18C819D81AA
:100CB00083309105E9F14FC0ABE3B0E0EBE3F0E046
:100CC0008081482F8B81282F30E081E090E0022E38
:100CD00002C0880F991F0A94E2F784278C933BC0C7
:100CE000A8E3B0E0E8E3F0E08081482F8B81282F73
:100CF00030E081E090E0022E02C0880F991F0A9434
:100D0000E2F784278C9327C0A5E3B0E0E5E3F0E0A9
:100D10008081482F8B81282F30E081E090E0022EE7
:100D200002C0880F991F0A94E2F784278C9313C09E
:100D3000A2E3B0E0E2E3F0E08081482F8B81282F2E
:100D400030E081E090E0022E02C0880F991F0A94E3
:100D5000E2F784278C9381E0898302C083E0898352
:100D600089810F900F900F900F900F90CF91DF918E
:100D70000895DF93CF93CDB7DEB727970FB6F894DA
:100D8000DEBF0FBECDBF8A836B835D834C83198228
:100D90008C819D81009709F47EC08A81843008F09F
:100DA00077C08B81883008F073C08A81282F30E0AB
:100DB0003F832E834E815F814130510559F18E81F1
:100DC0009F818230910534F42E813F8121153105B8
:100DD00069F05BC04E815F814230510579F18E81AF
:100DE0009F818330910509F43DC04FC0E9E3F0E0F5
:100DF0008081282F30E08B81882F90E0A90102C0EC
:100E0000559547958A95E2F7CA018170EC81FD817D
:100E100080833BC0E6E3F0E08081282F30E08B81C7
:100E2000882F90E0A90102C0559547958A95E2F771
:100E3000CA018170EC81FD81808327C0E3E3F0E08B
:100E40008081282F30E08B81882F90E0A90102C09B
:100E5000559547958A95E2F7CA018170EC81FD812D
:100E6000808313C0E0E3F0E08081282F30E08B81A5
:100E7000882F90E0A90102C0559547958A95E2F721
:100E8000CA018170EC81FD81808381E0898305C086
:100E900083E0898302C082E08983898127960FB627
:100EA000F894DEBF0FBECDBFCF91DF9108950F93B1
:100EB0001F93DF93CF93CDB7DEB764970FB6F89447
:100EC000DEBF0FBECDBF9C878B877E876D87588B1B
:100ED0004F873A8B298B1C8B0B8B198618861F82A8
:100EE0001E821D821C821B821A828AE0898308C0AE
:100EF0008B859C8501969C878B878A858F5F8A87E7
:100F0000EB85FC8580818C3299F78A8589878B8572
:100F10009C8501969C878B878A858F5F8A8708C00E
:100F20008B859C8501969C878B878A858F5F8A87B6
:100F3000EB85FC8580818C3299F78A8588878B8543
:100F40009C8501969C878B878A858F5F8A8708C0DE
:100F50008B859C8501969C878B878A858F5F8A8786
:100F6000EB85FC8580818C3299F78A858F838B8510
:100F70009C8501969C878B878A858F5F8A8708C0AE
:100F80008B859C8501969C878B878A858F5F8A8756
:100F9000EB85FC8580818C3299F78A858F5F8A8703
:100FA0008A858E8389858F5F89878C819D819C014D
:100FB000220F331FC901880F991F880F991F820FB5
:100FC000931F9D838C838985282F30E08B859C859A
:100FD000FC01E20FF31F8081282F30E08C819D817E
:100FE000820F931FC0979D838C8389858F5F89872C
:100FF0008985282F30E08B859C85FC01E20FF31F4B
:1010000080818E3291F689858F5F89878985282F27
:1010100030E08B859C85FC01E20FF31F8081882FD7
:1010200090E0C097AC018981282F30E0CA01B90156
:101030000E943A0ACB019C018C819D81820F931FF3
:101040009D838C838981882F90E09C01220F331F20
:10105000C901880F991F880F991F820F931F8983D9
:1010600089858F5F89878985282F30E08B859C85CE
:10107000FC01E20FF31F80818C3241F689858F5F7E
:101080008987E989FA89A081B1818985282F30E093
:101090008B859C85FC01E20FF31F80818C938985F1
:1010A0008F5F898789858F5F89878A819B819C0172
:1010B000220F331FC901880F991F880F991F820FB4
:1010C000931F9B838A838985282F30E08B859C859D
:1010D000FC01E20FF31F8081282F30E08A819B8181
:1010E000820F931FC0979B838A8389858F5F89872F
:1010F0008985282F30E08B859C85FC01E20FF31F4A
:1011000080818E3291F689858F5F89878AE0898315
:101110008985282F30E08B859C85FC01E20FF31F29
:101120008081882F90E0C097AC018981282F30E022
:10113000CA01B9010E943A0ACB019C018A819B81B4
:10114000820F931F9B838A838981882F90E09C0163
:10115000220F331FC901880F991F880F991F820F13
:10116000931F898389858F5F89878985282F30E040
:101170008B859C85FC01E20FF31F80818C3241F648
:1011800089858F5F8987EB89FC89A081B1818985F9
:10119000282F30E08B859C85FC01E20FF31F8081B6
:1011A0008C93EF85F889008111818A819B81CC0124
:1011B000A0E0B0E0BC01CD010E944900DC01CB0100
:1011C000F80180839183A283B383ED85FE8500813E
:1011D00011818C819D81CC01A0E0B0E0BC01CD01EA
:1011E0000E944900DC01CB01F80180839183A28336
:1011F000B38364960FB6F894DEBF0FBECDBFCF9118
:10120000DF911F910F910895DF93CF9300D00F923C
:10121000CDB7DEB7198280916001282F30E03B8383
:101220002A838A819B81009731F02A813B8121307A
:10123000310541F129C08091610190916201692FCE
:1012400041E00E943D048091610190916201692F0B
:1012500041E00E9434058091630190916401692FFF
:1012600041E00E943D048091630190916401692FE7
:1012700040E00E9434051092AC010E94E60181E03A
:10128000898302C081E0898389810F900F900F903C
:10129000CF91DF9108950F931F93DF93CF93CDB735
:1012A000DEB72B970FB6F894DEBF0FBECDBF9D8380
:1012B0008C837F836E83598748873B872A871A826E
:1012C0008C819D81009709F488C08E819F81009751
:1012D00009F483C088859985009709F47EC08A85C2
:1012E0009B85009709F479C01B821982CE01039671
:1012F0000E9447028B81843239F0CE0103960E940E
:1013000047028B818432C9F7CE0103960E944702BF
:10131000CE0103960E944702CE0103960E94470227
:101320008B81873409F03FC0CE0103960E944702AB
:101330008B818734C1F5CE0103960E9447028B81D1
:10134000813489F5CE0103960E9447028B818C324D
:1013500051F5CE0103960E9447028981882F90E0C3
:101360002B81FC01EB59FE4F208389818F5F89839C
:101370008B818A3071F7809171018C3231F08091CC
:10138000AC0181608093AC010EC08981882F90E010
:10139000FC01EB59FE4F88E5808389818150898368
:1013A0008981882391F78091AC018170882309F4A9
:1013B000A1CF85E691E09E012C5F3F4FAE014A5FD1
:1013C0005F4FFE013896DE011A96B9019F018D012B
:1013D0000E94570781E08A8302C082E08A838A8163
:1013E0002B960FB6F894DEBF0FBECDBFCF91DF9125
:1013F0001F910F910895DF93CF93CDB7DEB70E9471
:1014000004098DE40E94140281E60E94140289E618
:101410000E9414028EE60E94140286EB91E0482F8F
:1014200081EB91E0582F8DEA91E022EB31E0B90198
:10143000252F0E944B0980E20E94140280E20E9444
:10144000140287E70E94140288E60E94140289E6CB
:101450000E9414028CE60E94140285E60E94140287
:1014600088E20E94140281E30E94140289E20E9431
:101470001402FFCFAA1BBB1B51E107C0AA1FBB1F51
:10148000A617B70710F0A61BB70B881F991F5A9510
:10149000A9F780959095BC01CD0108952F923F92B8
:1014A0004F925F926F927F928F929F92AF92BF9274
:1014B000CF92DF92EF92FF920F931F93CF93DF9320
:1014C000CDB7DEB7CA1BDB0B0FB6F894DEBF0FBE7D
:1014D000CDBF09942A88398848885F846E847D84CA
:1014E0008C849B84AA84B984C884DF80EE80FD80CC
:1014F0000C811B81AA81B981CE0FD11D0FB6F89442
:0E150000DEBF0FBECDBFED010895F894FFCF02
:10150E00000102020303030304040404040404049C
:10151E00050505050505050505050505050505056D
:10152E00060606060606060606060606060606064D
:10153E00060606060606060606060606060606063D
:10154E00070707070707070707070707070707071D
:10155E00070707070707070707070707070707070D
:10156E0007070707070707070707070707070707FD
:10157E0007070707070707070707070707070707ED
:10158E0008080808080808080808080808080808CD
:10159E0008080808080808080808080808080808BD
:1015AE0008080808080808080808080808080808AD
:1015BE00080808080808080808080808080808089D
:1015CE00080808080808080808080808080808088D
:1015DE00080808080808080808080808080808087D
:1015EE00080808080808080808080808080808086D
:1015FE00080808080808080808080808080808085D
:10160E000000000001580000000000000000000073
:10161E0000000000000000000000000000000000BC
:10162E0000000000000000000000000000000000AC
:10163E00000000000000000000000000000000009C
:0C164E0000000000000000000000000090
:00000001FF
